{
	"lotterySmartContract.sol": {
		"lotterySmartContract": {
			"abi": [
				{
					"inputs": [],
					"stateMutability": "nonpayable",
					"type": "constructor"
				},
				{
					"inputs": [],
					"name": "amount",
					"outputs": [
						{
							"internalType": "uint256",
							"name": "",
							"type": "uint256"
						}
					],
					"stateMutability": "view",
					"type": "function"
				},
				{
					"inputs": [],
					"name": "chooseWinner",
					"outputs": [],
					"stateMutability": "payable",
					"type": "function"
				},
				{
					"inputs": [],
					"name": "completed",
					"outputs": [
						{
							"internalType": "bool",
							"name": "",
							"type": "bool"
						}
					],
					"stateMutability": "view",
					"type": "function"
				},
				{
					"inputs": [
						{
							"internalType": "uint256",
							"name": "_amount",
							"type": "uint256"
						}
					],
					"name": "enter",
					"outputs": [],
					"stateMutability": "payable",
					"type": "function"
				},
				{
					"inputs": [],
					"name": "manager",
					"outputs": [
						{
							"internalType": "address payable",
							"name": "",
							"type": "address"
						}
					],
					"stateMutability": "view",
					"type": "function"
				},
				{
					"inputs": [],
					"name": "showWinner",
					"outputs": [
						{
							"internalType": "address",
							"name": "",
							"type": "address"
						}
					],
					"stateMutability": "view",
					"type": "function"
				}
			],
			"devdoc": {
				"kind": "dev",
				"methods": {},
				"version": 1
			},
			"evm": {
				"assembly": "    /* \"lotterySmartContract.sol\":69:1962  contract lotterySmartContract{... */\n  mstore(0x40, 0x80)\n    /* \"lotterySmartContract.sol\":408:413  false */\n  0x00\n    /* \"lotterySmartContract.sol\":384:413  bool public completed = false */\n  0x03\n  exp(0x0100, 0x00)\n  dup2\n  sload\n  dup2\n  0xff\n  mul\n  not\n  and\n  swap1\n  dup4\n  iszero\n  iszero\n  mul\n  or\n  swap1\n  sstore\n  pop\n    /* \"lotterySmartContract.sol\":422:484  constructor(){... */\n  callvalue\n  dup1\n  iszero\n  tag_1\n  jumpi\n  0x00\n  dup1\n  revert\ntag_1:\n  pop\n    /* \"lotterySmartContract.sol\":465:475  msg.sender */\n  caller\n    /* \"lotterySmartContract.sol\":446:453  manager */\n  0x00\n  dup1\n    /* \"lotterySmartContract.sol\":446:476  manager = payable (msg.sender) */\n  0x0100\n  exp\n  dup2\n  sload\n  dup2\n  0xffffffffffffffffffffffffffffffffffffffff\n  mul\n  not\n  and\n  swap1\n  dup4\n  0xffffffffffffffffffffffffffffffffffffffff\n  and\n  mul\n  or\n  swap1\n  sstore\n  pop\n    /* \"lotterySmartContract.sol\":69:1962  contract lotterySmartContract{... */\n  dataSize(sub_0)\n  dup1\n  dataOffset(sub_0)\n  0x00\n  codecopy\n  0x00\n  return\nstop\n\nsub_0: assembly {\n        /* \"lotterySmartContract.sol\":69:1962  contract lotterySmartContract{... */\n      mstore(0x40, 0x80)\n      jumpi(tag_1, lt(calldatasize, 0x04))\n      shr(0xe0, calldataload(0x00))\n      dup1\n      0x481c6a75\n      eq\n      tag_2\n      jumpi\n      dup1\n      0x9d9a7fe9\n      eq\n      tag_3\n      jumpi\n      dup1\n      0xa59f3e0c\n      eq\n      tag_4\n      jumpi\n      dup1\n      0xaa8c217c\n      eq\n      tag_5\n      jumpi\n      dup1\n      0xb7e03264\n      eq\n      tag_6\n      jumpi\n      dup1\n      0xcd38aa87\n      eq\n      tag_7\n      jumpi\n    tag_1:\n      0x00\n      dup1\n      revert\n        /* \"lotterySmartContract.sol\":287:318  address payable public  manager */\n    tag_2:\n      callvalue\n      dup1\n      iszero\n      tag_8\n      jumpi\n      0x00\n      dup1\n      revert\n    tag_8:\n      pop\n      tag_9\n      tag_10\n      jump\t// in\n    tag_9:\n      mload(0x40)\n      tag_11\n      swap2\n      swap1\n      tag_12\n      jump\t// in\n    tag_11:\n      mload(0x40)\n      dup1\n      swap2\n      sub\n      swap1\n      return\n        /* \"lotterySmartContract.sol\":384:413  bool public completed = false */\n    tag_3:\n      callvalue\n      dup1\n      iszero\n      tag_13\n      jumpi\n      0x00\n      dup1\n      revert\n    tag_13:\n      pop\n      tag_14\n      tag_15\n      jump\t// in\n    tag_14:\n      mload(0x40)\n      tag_16\n      swap2\n      swap1\n      tag_17\n      jump\t// in\n    tag_16:\n      mload(0x40)\n      dup1\n      swap2\n      sub\n      swap1\n      return\n        /* \"lotterySmartContract.sol\":895:1285  function enter(uint _amount) public onlyPlayer  payable  {... */\n    tag_4:\n      tag_18\n      0x04\n      dup1\n      calldatasize\n      sub\n      dup2\n      add\n      swap1\n      tag_19\n      swap2\n      swap1\n      tag_20\n      jump\t// in\n    tag_19:\n      tag_21\n      jump\t// in\n    tag_18:\n      stop\n        /* \"lotterySmartContract.sol\":358:377  uint public  amount */\n    tag_5:\n      callvalue\n      dup1\n      iszero\n      tag_22\n      jumpi\n      0x00\n      dup1\n      revert\n    tag_22:\n      pop\n      tag_23\n      tag_24\n      jump\t// in\n    tag_23:\n      mload(0x40)\n      tag_25\n      swap2\n      swap1\n      tag_26\n      jump\t// in\n    tag_25:\n      mload(0x40)\n      dup1\n      swap2\n      sub\n      swap1\n      return\n        /* \"lotterySmartContract.sol\":1802:1953  function showWinner() public view returns(address ){... */\n    tag_6:\n      callvalue\n      dup1\n      iszero\n      tag_27\n      jumpi\n      0x00\n      dup1\n      revert\n    tag_27:\n      pop\n      tag_28\n      tag_29\n      jump\t// in\n    tag_28:\n      mload(0x40)\n      tag_30\n      swap2\n      swap1\n      tag_31\n      jump\t// in\n    tag_30:\n      mload(0x40)\n      dup1\n      swap2\n      sub\n      swap1\n      return\n        /* \"lotterySmartContract.sol\":1491:1794  function chooseWinner() onlyManager payable public {... */\n    tag_7:\n      tag_32\n      tag_33\n      jump\t// in\n    tag_32:\n      stop\n        /* \"lotterySmartContract.sol\":287:318  address payable public  manager */\n    tag_10:\n      0x00\n      dup1\n      sload\n      swap1\n      0x0100\n      exp\n      swap1\n      div\n      0xffffffffffffffffffffffffffffffffffffffff\n      and\n      dup2\n      jump\t// out\n        /* \"lotterySmartContract.sol\":384:413  bool public completed = false */\n    tag_15:\n      0x03\n      0x00\n      swap1\n      sload\n      swap1\n      0x0100\n      exp\n      swap1\n      div\n      0xff\n      and\n      dup2\n      jump\t// out\n        /* \"lotterySmartContract.sol\":895:1285  function enter(uint _amount) public onlyPlayer  payable  {... */\n    tag_21:\n        /* \"lotterySmartContract.sol\":651:658  manager */\n      0x00\n      dup1\n      sload\n      swap1\n      0x0100\n      exp\n      swap1\n      div\n      0xffffffffffffffffffffffffffffffffffffffff\n      and\n        /* \"lotterySmartContract.sol\":639:658  msg.sender!=manager */\n      0xffffffffffffffffffffffffffffffffffffffff\n      and\n        /* \"lotterySmartContract.sol\":639:649  msg.sender */\n      caller\n        /* \"lotterySmartContract.sol\":639:658  msg.sender!=manager */\n      0xffffffffffffffffffffffffffffffffffffffff\n      and\n      sub\n        /* \"lotterySmartContract.sol\":631:692  require(msg.sender!=manager,\"cant access as you are manager\") */\n      tag_35\n      jumpi\n      mload(0x40)\n      0x08c379a000000000000000000000000000000000000000000000000000000000\n      dup2\n      mstore\n      0x04\n      add\n      tag_36\n      swap1\n      tag_37\n      jump\t// in\n    tag_36:\n      mload(0x40)\n      dup1\n      swap2\n      sub\n      swap1\n      revert\n    tag_35:\n        /* \"lotterySmartContract.sol\":972:981  completed */\n      0x03\n      0x00\n      swap1\n      sload\n      swap1\n      0x0100\n      exp\n      swap1\n      div\n      0xff\n      and\n        /* \"lotterySmartContract.sol\":971:981  !completed */\n      iszero\n        /* \"lotterySmartContract.sol\":963:1011  require(!completed,\"lottery has been completed\") */\n      tag_39\n      jumpi\n      mload(0x40)\n      0x08c379a000000000000000000000000000000000000000000000000000000000\n      dup2\n      mstore\n      0x04\n      add\n      tag_40\n      swap1\n      tag_41\n      jump\t// in\n    tag_40:\n      mload(0x40)\n      dup1\n      swap2\n      sub\n      swap1\n      revert\n    tag_39:\n        /* \"lotterySmartContract.sol\":1030:1050  checkAccessibility() */\n      tag_42\n        /* \"lotterySmartContract.sol\":1030:1048  checkAccessibility */\n      tag_43\n        /* \"lotterySmartContract.sol\":1030:1050  checkAccessibility() */\n      jump\t// in\n    tag_42:\n        /* \"lotterySmartContract.sol\":1022:1080  require(checkAccessibility(),\"already buy lottery ticket\") */\n      tag_44\n      jumpi\n      mload(0x40)\n      0x08c379a000000000000000000000000000000000000000000000000000000000\n      dup2\n      mstore\n      0x04\n      add\n      tag_45\n      swap1\n      tag_46\n      jump\t// in\n    tag_45:\n      mload(0x40)\n      dup1\n      swap2\n      sub\n      swap1\n      revert\n    tag_44:\n        /* \"lotterySmartContract.sol\":1092:1101  bool sent */\n      0x00\n        /* \"lotterySmartContract.sol\":1104:1111  manager */\n      dup1\n      0x00\n      swap1\n      sload\n      swap1\n      0x0100\n      exp\n      swap1\n      div\n      0xffffffffffffffffffffffffffffffffffffffff\n      and\n        /* \"lotterySmartContract.sol\":1104:1116  manager.call */\n      0xffffffffffffffffffffffffffffffffffffffff\n      and\n        /* \"lotterySmartContract.sol\":1123:1130  _amount */\n      dup3\n        /* \"lotterySmartContract.sol\":1104:1135  manager.call{value:_amount}(\"\") */\n      mload(0x40)\n      tag_47\n      swap1\n      tag_48\n      jump\t// in\n    tag_47:\n      0x00\n      mload(0x40)\n      dup1\n      dup4\n      sub\n      dup2\n      dup6\n      dup8\n      gas\n      call\n      swap3\n      pop\n      pop\n      pop\n      returndatasize\n      dup1\n      0x00\n      dup2\n      eq\n      tag_51\n      jumpi\n      mload(0x40)\n      swap2\n      pop\n      and(add(returndatasize, 0x3f), not(0x1f))\n      dup3\n      add\n      0x40\n      mstore\n      returndatasize\n      dup3\n      mstore\n      returndatasize\n      0x00\n      0x20\n      dup5\n      add\n      returndatacopy\n      jump(tag_50)\n    tag_51:\n      0x60\n      swap2\n      pop\n    tag_50:\n      pop\n        /* \"lotterySmartContract.sol\":1091:1135  (bool sent,)=manager.call{value:_amount}(\"\") */\n      pop\n      swap1\n      pop\n        /* \"lotterySmartContract.sol\":1154:1158  sent */\n      dup1\n        /* \"lotterySmartContract.sol\":1146:1176  require(sent,\"tran is failed\") */\n      tag_52\n      jumpi\n      mload(0x40)\n      0x08c379a000000000000000000000000000000000000000000000000000000000\n      dup2\n      mstore\n      0x04\n      add\n      tag_53\n      swap1\n      tag_54\n      jump\t// in\n    tag_53:\n      mload(0x40)\n      dup1\n      swap2\n      sub\n      swap1\n      revert\n    tag_52:\n        /* \"lotterySmartContract.sol\":1195:1202  _amount */\n      dup2\n        /* \"lotterySmartContract.sol\":1187:1193  amount */\n      0x02\n      0x00\n        /* \"lotterySmartContract.sol\":1187:1202  amount+=_amount */\n      dup3\n      dup3\n      sload\n      tag_55\n      swap2\n      swap1\n      tag_56\n      jump\t// in\n    tag_55:\n      swap3\n      pop\n      pop\n      dup2\n      swap1\n      sstore\n      pop\n        /* \"lotterySmartContract.sol\":1213:1220  players */\n      0x01\n        /* \"lotterySmartContract.sol\":1234:1244  msg.sender */\n      caller\n        /* \"lotterySmartContract.sol\":1213:1246  players.push(payable(msg.sender)) */\n      swap1\n      dup1\n      0x01\n      dup2\n      sload\n      add\n      dup1\n      dup3\n      sstore\n      dup1\n      swap2\n      pop\n      pop\n      0x01\n      swap1\n      sub\n      swap1\n      0x00\n      mstore\n      keccak256(0x00, 0x20)\n      add\n      0x00\n      swap1\n      swap2\n      swap1\n      swap2\n      swap1\n      swap2\n      0x0100\n      exp\n      dup2\n      sload\n      dup2\n      0xffffffffffffffffffffffffffffffffffffffff\n      mul\n      not\n      and\n      swap1\n      dup4\n      0xffffffffffffffffffffffffffffffffffffffff\n      and\n      mul\n      or\n      swap1\n      sstore\n      pop\n        /* \"lotterySmartContract.sol\":1273:1277  true */\n      0x01\n        /* \"lotterySmartContract.sol\":1257:1260  map */\n      0x04\n        /* \"lotterySmartContract.sol\":1257:1272  map[msg.sender] */\n      0x00\n        /* \"lotterySmartContract.sol\":1261:1271  msg.sender */\n      caller\n        /* \"lotterySmartContract.sol\":1257:1272  map[msg.sender] */\n      0xffffffffffffffffffffffffffffffffffffffff\n      and\n      0xffffffffffffffffffffffffffffffffffffffff\n      and\n      dup2\n      mstore\n      0x20\n      add\n      swap1\n      dup2\n      mstore\n      0x20\n      add\n      0x00\n      keccak256\n      0x00\n        /* \"lotterySmartContract.sol\":1257:1277  map[msg.sender]=true */\n      0x0100\n      exp\n      dup2\n      sload\n      dup2\n      0xff\n      mul\n      not\n      and\n      swap1\n      dup4\n      iszero\n      iszero\n      mul\n      or\n      swap1\n      sstore\n      pop\n        /* \"lotterySmartContract.sol\":952:1285  {... */\n      pop\n        /* \"lotterySmartContract.sol\":895:1285  function enter(uint _amount) public onlyPlayer  payable  {... */\n      pop\n      jump\t// out\n        /* \"lotterySmartContract.sol\":358:377  uint public  amount */\n    tag_24:\n      sload(0x02)\n      dup2\n      jump\t// out\n        /* \"lotterySmartContract.sol\":1802:1953  function showWinner() public view returns(address ){... */\n    tag_29:\n        /* \"lotterySmartContract.sol\":1844:1851  address */\n      0x00\n        /* \"lotterySmartContract.sol\":1872:1881  completed */\n      0x03\n      0x00\n      swap1\n      sload\n      swap1\n      0x0100\n      exp\n      swap1\n      div\n      0xff\n      and\n        /* \"lotterySmartContract.sol\":1864:1910  require(completed,\"lottery has not completed\") */\n      tag_59\n      jumpi\n      mload(0x40)\n      0x08c379a000000000000000000000000000000000000000000000000000000000\n      dup2\n      mstore\n      0x04\n      add\n      tag_60\n      swap1\n      tag_61\n      jump\t// in\n    tag_60:\n      mload(0x40)\n      dup1\n      swap2\n      sub\n      swap1\n      revert\n    tag_59:\n        /* \"lotterySmartContract.sol\":1928:1935  players */\n      0x01\n        /* \"lotterySmartContract.sol\":1936:1942  _index */\n      sload(0x05)\n        /* \"lotterySmartContract.sol\":1928:1943  players[_index] */\n      dup2\n      sload\n      dup2\n      lt\n      tag_62\n      jumpi\n      tag_63\n      tag_64\n      jump\t// in\n    tag_63:\n    tag_62:\n      swap1\n      0x00\n      mstore\n      keccak256(0x00, 0x20)\n      add\n      0x00\n      swap1\n      sload\n      swap1\n      0x0100\n      exp\n      swap1\n      div\n      0xffffffffffffffffffffffffffffffffffffffff\n      and\n        /* \"lotterySmartContract.sol\":1921:1943  return players[_index] */\n      swap1\n      pop\n        /* \"lotterySmartContract.sol\":1802:1953  function showWinner() public view returns(address ){... */\n      swap1\n      jump\t// out\n        /* \"lotterySmartContract.sol\":1491:1794  function chooseWinner() onlyManager payable public {... */\n    tag_33:\n        /* \"lotterySmartContract.sol\":543:550  manager */\n      0x00\n      dup1\n      sload\n      swap1\n      0x0100\n      exp\n      swap1\n      div\n      0xffffffffffffffffffffffffffffffffffffffff\n      and\n        /* \"lotterySmartContract.sol\":531:550  msg.sender==manager */\n      0xffffffffffffffffffffffffffffffffffffffff\n      and\n        /* \"lotterySmartContract.sol\":531:541  msg.sender */\n      caller\n        /* \"lotterySmartContract.sol\":531:550  msg.sender==manager */\n      0xffffffffffffffffffffffffffffffffffffffff\n      and\n      eq\n        /* \"lotterySmartContract.sol\":523:573  require(msg.sender==manager,\"you are not manager\") */\n      tag_67\n      jumpi\n      mload(0x40)\n      0x08c379a000000000000000000000000000000000000000000000000000000000\n      dup2\n      mstore\n      0x04\n      add\n      tag_68\n      swap1\n      tag_69\n      jump\t// in\n    tag_68:\n      mload(0x40)\n      dup1\n      swap2\n      sub\n      swap1\n      revert\n    tag_67:\n        /* \"lotterySmartContract.sol\":1570:1577  players */\n      0x01\n        /* \"lotterySmartContract.sol\":1570:1584  players.length */\n      dup1\n      sload\n      swap1\n      pop\n        /* \"lotterySmartContract.sol\":1560:1569  randMod() */\n      tag_71\n        /* \"lotterySmartContract.sol\":1560:1567  randMod */\n      tag_72\n        /* \"lotterySmartContract.sol\":1560:1569  randMod() */\n      jump\t// in\n    tag_71:\n        /* \"lotterySmartContract.sol\":1560:1584  randMod()%players.length */\n      tag_73\n      swap2\n      swap1\n      tag_74\n      jump\t// in\n    tag_73:\n        /* \"lotterySmartContract.sol\":1553:1559  _index */\n      0x05\n        /* \"lotterySmartContract.sol\":1553:1584  _index=randMod()%players.length */\n      dup2\n      swap1\n      sstore\n      pop\n        /* \"lotterySmartContract.sol\":1604:1613  completed */\n      0x03\n      0x00\n      swap1\n      sload\n      swap1\n      0x0100\n      exp\n      swap1\n      div\n      0xff\n      and\n        /* \"lotterySmartContract.sol\":1603:1613  !completed */\n      iszero\n        /* \"lotterySmartContract.sol\":1595:1643  require(!completed,\"lottery has been completed\") */\n      tag_75\n      jumpi\n      mload(0x40)\n      0x08c379a000000000000000000000000000000000000000000000000000000000\n      dup2\n      mstore\n      0x04\n      add\n      tag_76\n      swap1\n      tag_41\n      jump\t// in\n    tag_76:\n      mload(0x40)\n      dup1\n      swap2\n      sub\n      swap1\n      revert\n    tag_75:\n        /* \"lotterySmartContract.sol\":1655:1664  bool sent */\n      0x00\n        /* \"lotterySmartContract.sol\":1668:1675  players */\n      0x01\n        /* \"lotterySmartContract.sol\":1676:1682  _index */\n      sload(0x05)\n        /* \"lotterySmartContract.sol\":1668:1683  players[_index] */\n      dup2\n      sload\n      dup2\n      lt\n      tag_77\n      jumpi\n      tag_78\n      tag_64\n      jump\t// in\n    tag_78:\n    tag_77:\n      swap1\n      0x00\n      mstore\n      keccak256(0x00, 0x20)\n      add\n      0x00\n      swap1\n      sload\n      swap1\n      0x0100\n      exp\n      swap1\n      div\n      0xffffffffffffffffffffffffffffffffffffffff\n      and\n        /* \"lotterySmartContract.sol\":1668:1688  players[_index].call */\n      0xffffffffffffffffffffffffffffffffffffffff\n      and\n        /* \"lotterySmartContract.sol\":1695:1701  amount */\n      sload(0x02)\n        /* \"lotterySmartContract.sol\":1668:1706  players[_index].call{value:amount}(\"\") */\n      mload(0x40)\n      tag_80\n      swap1\n      tag_48\n      jump\t// in\n    tag_80:\n      0x00\n      mload(0x40)\n      dup1\n      dup4\n      sub\n      dup2\n      dup6\n      dup8\n      gas\n      call\n      swap3\n      pop\n      pop\n      pop\n      returndatasize\n      dup1\n      0x00\n      dup2\n      eq\n      tag_83\n      jumpi\n      mload(0x40)\n      swap2\n      pop\n      and(add(returndatasize, 0x3f), not(0x1f))\n      dup3\n      add\n      0x40\n      mstore\n      returndatasize\n      dup3\n      mstore\n      returndatasize\n      0x00\n      0x20\n      dup5\n      add\n      returndatacopy\n      jump(tag_82)\n    tag_83:\n      0x60\n      swap2\n      pop\n    tag_82:\n      pop\n        /* \"lotterySmartContract.sol\":1654:1706  (bool sent,)= players[_index].call{value:amount}(\"\") */\n      pop\n      swap1\n      pop\n        /* \"lotterySmartContract.sol\":1725:1729  sent */\n      dup1\n        /* \"lotterySmartContract.sol\":1717:1747  require(sent,\"tran is failed\") */\n      tag_84\n      jumpi\n      mload(0x40)\n      0x08c379a000000000000000000000000000000000000000000000000000000000\n      dup2\n      mstore\n      0x04\n      add\n      tag_85\n      swap1\n      tag_54\n      jump\t// in\n    tag_85:\n      mload(0x40)\n      dup1\n      swap2\n      sub\n      swap1\n      revert\n    tag_84:\n        /* \"lotterySmartContract.sol\":1768:1772  true */\n      0x01\n        /* \"lotterySmartContract.sol\":1758:1767  completed */\n      0x03\n      0x00\n        /* \"lotterySmartContract.sol\":1758:1772  completed=true */\n      0x0100\n      exp\n      dup2\n      sload\n      dup2\n      0xff\n      mul\n      not\n      and\n      swap1\n      dup4\n      iszero\n      iszero\n      mul\n      or\n      swap1\n      sstore\n      pop\n        /* \"lotterySmartContract.sol\":1542:1794  {... */\n      pop\n        /* \"lotterySmartContract.sol\":1491:1794  function chooseWinner() onlyManager payable public {... */\n      jump\t// out\n        /* \"lotterySmartContract.sol\":758:887  function checkAccessibility() private view returns(bool){... */\n    tag_43:\n        /* \"lotterySmartContract.sol\":809:813  bool */\n      0x00\n        /* \"lotterySmartContract.sol\":828:831  map */\n      0x04\n        /* \"lotterySmartContract.sol\":828:843  map[msg.sender] */\n      0x00\n        /* \"lotterySmartContract.sol\":832:842  msg.sender */\n      caller\n        /* \"lotterySmartContract.sol\":828:843  map[msg.sender] */\n      0xffffffffffffffffffffffffffffffffffffffff\n      and\n      0xffffffffffffffffffffffffffffffffffffffff\n      and\n      dup2\n      mstore\n      0x20\n      add\n      swap1\n      dup2\n      mstore\n      0x20\n      add\n      0x00\n      keccak256\n      0x00\n      swap1\n      sload\n      swap1\n      0x0100\n      exp\n      swap1\n      div\n      0xff\n      and\n        /* \"lotterySmartContract.sol\":825:857  if(map[msg.sender]) return false */\n      iszero\n      tag_87\n      jumpi\n        /* \"lotterySmartContract.sol\":852:857  false */\n      0x00\n        /* \"lotterySmartContract.sol\":845:857  return false */\n      swap1\n      pop\n      jump(tag_86)\n        /* \"lotterySmartContract.sol\":825:857  if(map[msg.sender]) return false */\n    tag_87:\n        /* \"lotterySmartContract.sol\":875:879  true */\n      0x01\n        /* \"lotterySmartContract.sol\":868:879  return true */\n      swap1\n      pop\n        /* \"lotterySmartContract.sol\":758:887  function checkAccessibility() private view returns(bool){... */\n    tag_86:\n      swap1\n      jump\t// out\n        /* \"lotterySmartContract.sol\":1293:1465  function randMod()  private view returns(uint){... */\n    tag_72:\n        /* \"lotterySmartContract.sol\":1334:1338  uint */\n      0x00\n        /* \"lotterySmartContract.sol\":1350:1364  uint randNonce */\n      dup1\n        /* \"lotterySmartContract.sol\":1367:1368  0 */\n      0x00\n        /* \"lotterySmartContract.sol\":1350:1368  uint randNonce = 0 */\n      swap1\n      pop\n        /* \"lotterySmartContract.sol\":1418:1433  block.timestamp */\n      timestamp\n        /* \"lotterySmartContract.sol\":1434:1444  msg.sender */\n      caller\n        /* \"lotterySmartContract.sol\":1445:1454  randNonce */\n      dup3\n        /* \"lotterySmartContract.sol\":1401:1455  abi.encodePacked(block.timestamp,msg.sender,randNonce) */\n      add(0x20, mload(0x40))\n      tag_89\n      swap4\n      swap3\n      swap2\n      swap1\n      tag_90\n      jump\t// in\n    tag_89:\n      mload(0x40)\n      0x20\n      dup2\n      dup4\n      sub\n      sub\n      dup2\n      mstore\n      swap1\n      0x40\n      mstore\n        /* \"lotterySmartContract.sol\":1391:1456  keccak256(abi.encodePacked(block.timestamp,msg.sender,randNonce)) */\n      dup1\n      mload\n      swap1\n      0x20\n      add\n      keccak256\n        /* \"lotterySmartContract.sol\":1386:1457  uint(keccak256(abi.encodePacked(block.timestamp,msg.sender,randNonce))) */\n      0x00\n      shr\n        /* \"lotterySmartContract.sol\":1379:1457  return uint(keccak256(abi.encodePacked(block.timestamp,msg.sender,randNonce))) */\n      swap2\n      pop\n      pop\n        /* \"lotterySmartContract.sol\":1293:1465  function randMod()  private view returns(uint){... */\n      swap1\n      jump\t// out\n        /* \"#utility.yul\":7:133   */\n    tag_91:\n        /* \"#utility.yul\":44:51   */\n      0x00\n        /* \"#utility.yul\":84:126   */\n      0xffffffffffffffffffffffffffffffffffffffff\n        /* \"#utility.yul\":77:82   */\n      dup3\n        /* \"#utility.yul\":73:127   */\n      and\n        /* \"#utility.yul\":62:127   */\n      swap1\n      pop\n        /* \"#utility.yul\":7:133   */\n      swap2\n      swap1\n      pop\n      jump\t// out\n        /* \"#utility.yul\":139:243   */\n    tag_92:\n        /* \"#utility.yul\":184:191   */\n      0x00\n        /* \"#utility.yul\":213:237   */\n      tag_132\n        /* \"#utility.yul\":231:236   */\n      dup3\n        /* \"#utility.yul\":213:237   */\n      tag_91\n      jump\t// in\n    tag_132:\n        /* \"#utility.yul\":202:237   */\n      swap1\n      pop\n        /* \"#utility.yul\":139:243   */\n      swap2\n      swap1\n      pop\n      jump\t// out\n        /* \"#utility.yul\":249:391   */\n    tag_93:\n        /* \"#utility.yul\":352:384   */\n      tag_134\n        /* \"#utility.yul\":378:383   */\n      dup2\n        /* \"#utility.yul\":352:384   */\n      tag_92\n      jump\t// in\n    tag_134:\n        /* \"#utility.yul\":347:350   */\n      dup3\n        /* \"#utility.yul\":340:385   */\n      mstore\n        /* \"#utility.yul\":249:391   */\n      pop\n      pop\n      jump\t// out\n        /* \"#utility.yul\":397:651   */\n    tag_12:\n        /* \"#utility.yul\":506:510   */\n      0x00\n        /* \"#utility.yul\":544:546   */\n      0x20\n        /* \"#utility.yul\":533:542   */\n      dup3\n        /* \"#utility.yul\":529:547   */\n      add\n        /* \"#utility.yul\":521:547   */\n      swap1\n      pop\n        /* \"#utility.yul\":557:644   */\n      tag_136\n        /* \"#utility.yul\":641:642   */\n      0x00\n        /* \"#utility.yul\":630:639   */\n      dup4\n        /* \"#utility.yul\":626:643   */\n      add\n        /* \"#utility.yul\":617:623   */\n      dup5\n        /* \"#utility.yul\":557:644   */\n      tag_93\n      jump\t// in\n    tag_136:\n        /* \"#utility.yul\":397:651   */\n      swap3\n      swap2\n      pop\n      pop\n      jump\t// out\n        /* \"#utility.yul\":657:747   */\n    tag_94:\n        /* \"#utility.yul\":691:698   */\n      0x00\n        /* \"#utility.yul\":734:739   */\n      dup2\n        /* \"#utility.yul\":727:740   */\n      iszero\n        /* \"#utility.yul\":720:741   */\n      iszero\n        /* \"#utility.yul\":709:741   */\n      swap1\n      pop\n        /* \"#utility.yul\":657:747   */\n      swap2\n      swap1\n      pop\n      jump\t// out\n        /* \"#utility.yul\":753:862   */\n    tag_95:\n        /* \"#utility.yul\":834:855   */\n      tag_139\n        /* \"#utility.yul\":849:854   */\n      dup2\n        /* \"#utility.yul\":834:855   */\n      tag_94\n      jump\t// in\n    tag_139:\n        /* \"#utility.yul\":829:832   */\n      dup3\n        /* \"#utility.yul\":822:856   */\n      mstore\n        /* \"#utility.yul\":753:862   */\n      pop\n      pop\n      jump\t// out\n        /* \"#utility.yul\":868:1078   */\n    tag_17:\n        /* \"#utility.yul\":955:959   */\n      0x00\n        /* \"#utility.yul\":993:995   */\n      0x20\n        /* \"#utility.yul\":982:991   */\n      dup3\n        /* \"#utility.yul\":978:996   */\n      add\n        /* \"#utility.yul\":970:996   */\n      swap1\n      pop\n        /* \"#utility.yul\":1006:1071   */\n      tag_141\n        /* \"#utility.yul\":1068:1069   */\n      0x00\n        /* \"#utility.yul\":1057:1066   */\n      dup4\n        /* \"#utility.yul\":1053:1070   */\n      add\n        /* \"#utility.yul\":1044:1050   */\n      dup5\n        /* \"#utility.yul\":1006:1071   */\n      tag_95\n      jump\t// in\n    tag_141:\n        /* \"#utility.yul\":868:1078   */\n      swap3\n      swap2\n      pop\n      pop\n      jump\t// out\n        /* \"#utility.yul\":1165:1282   */\n    tag_97:\n        /* \"#utility.yul\":1274:1275   */\n      0x00\n        /* \"#utility.yul\":1271:1272   */\n      dup1\n        /* \"#utility.yul\":1264:1276   */\n      revert\n        /* \"#utility.yul\":1411:1488   */\n    tag_99:\n        /* \"#utility.yul\":1448:1455   */\n      0x00\n        /* \"#utility.yul\":1477:1482   */\n      dup2\n        /* \"#utility.yul\":1466:1482   */\n      swap1\n      pop\n        /* \"#utility.yul\":1411:1488   */\n      swap2\n      swap1\n      pop\n      jump\t// out\n        /* \"#utility.yul\":1494:1616   */\n    tag_100:\n        /* \"#utility.yul\":1567:1591   */\n      tag_147\n        /* \"#utility.yul\":1585:1590   */\n      dup2\n        /* \"#utility.yul\":1567:1591   */\n      tag_99\n      jump\t// in\n    tag_147:\n        /* \"#utility.yul\":1560:1565   */\n      dup2\n        /* \"#utility.yul\":1557:1592   */\n      eq\n        /* \"#utility.yul\":1547:1610   */\n      tag_148\n      jumpi\n        /* \"#utility.yul\":1606:1607   */\n      0x00\n        /* \"#utility.yul\":1603:1604   */\n      dup1\n        /* \"#utility.yul\":1596:1608   */\n      revert\n        /* \"#utility.yul\":1547:1610   */\n    tag_148:\n        /* \"#utility.yul\":1494:1616   */\n      pop\n      jump\t// out\n        /* \"#utility.yul\":1622:1761   */\n    tag_101:\n        /* \"#utility.yul\":1668:1673   */\n      0x00\n        /* \"#utility.yul\":1706:1712   */\n      dup2\n        /* \"#utility.yul\":1693:1713   */\n      calldataload\n        /* \"#utility.yul\":1684:1713   */\n      swap1\n      pop\n        /* \"#utility.yul\":1722:1755   */\n      tag_150\n        /* \"#utility.yul\":1749:1754   */\n      dup2\n        /* \"#utility.yul\":1722:1755   */\n      tag_100\n      jump\t// in\n    tag_150:\n        /* \"#utility.yul\":1622:1761   */\n      swap3\n      swap2\n      pop\n      pop\n      jump\t// out\n        /* \"#utility.yul\":1767:2096   */\n    tag_20:\n        /* \"#utility.yul\":1826:1832   */\n      0x00\n        /* \"#utility.yul\":1875:1877   */\n      0x20\n        /* \"#utility.yul\":1863:1872   */\n      dup3\n        /* \"#utility.yul\":1854:1861   */\n      dup5\n        /* \"#utility.yul\":1850:1873   */\n      sub\n        /* \"#utility.yul\":1846:1878   */\n      slt\n        /* \"#utility.yul\":1843:1962   */\n      iszero\n      tag_152\n      jumpi\n        /* \"#utility.yul\":1881:1960   */\n      tag_153\n      tag_97\n      jump\t// in\n    tag_153:\n        /* \"#utility.yul\":1843:1962   */\n    tag_152:\n        /* \"#utility.yul\":2001:2002   */\n      0x00\n        /* \"#utility.yul\":2026:2079   */\n      tag_154\n        /* \"#utility.yul\":2071:2078   */\n      dup5\n        /* \"#utility.yul\":2062:2068   */\n      dup3\n        /* \"#utility.yul\":2051:2060   */\n      dup6\n        /* \"#utility.yul\":2047:2069   */\n      add\n        /* \"#utility.yul\":2026:2079   */\n      tag_101\n      jump\t// in\n    tag_154:\n        /* \"#utility.yul\":2016:2079   */\n      swap2\n      pop\n        /* \"#utility.yul\":1972:2089   */\n      pop\n        /* \"#utility.yul\":1767:2096   */\n      swap3\n      swap2\n      pop\n      pop\n      jump\t// out\n        /* \"#utility.yul\":2102:2220   */\n    tag_102:\n        /* \"#utility.yul\":2189:2213   */\n      tag_156\n        /* \"#utility.yul\":2207:2212   */\n      dup2\n        /* \"#utility.yul\":2189:2213   */\n      tag_99\n      jump\t// in\n    tag_156:\n        /* \"#utility.yul\":2184:2187   */\n      dup3\n        /* \"#utility.yul\":2177:2214   */\n      mstore\n        /* \"#utility.yul\":2102:2220   */\n      pop\n      pop\n      jump\t// out\n        /* \"#utility.yul\":2226:2448   */\n    tag_26:\n        /* \"#utility.yul\":2319:2323   */\n      0x00\n        /* \"#utility.yul\":2357:2359   */\n      0x20\n        /* \"#utility.yul\":2346:2355   */\n      dup3\n        /* \"#utility.yul\":2342:2360   */\n      add\n        /* \"#utility.yul\":2334:2360   */\n      swap1\n      pop\n        /* \"#utility.yul\":2370:2441   */\n      tag_158\n        /* \"#utility.yul\":2438:2439   */\n      0x00\n        /* \"#utility.yul\":2427:2436   */\n      dup4\n        /* \"#utility.yul\":2423:2440   */\n      add\n        /* \"#utility.yul\":2414:2420   */\n      dup5\n        /* \"#utility.yul\":2370:2441   */\n      tag_102\n      jump\t// in\n    tag_158:\n        /* \"#utility.yul\":2226:2448   */\n      swap3\n      swap2\n      pop\n      pop\n      jump\t// out\n        /* \"#utility.yul\":2454:2550   */\n    tag_103:\n        /* \"#utility.yul\":2491:2498   */\n      0x00\n        /* \"#utility.yul\":2520:2544   */\n      tag_160\n        /* \"#utility.yul\":2538:2543   */\n      dup3\n        /* \"#utility.yul\":2520:2544   */\n      tag_91\n      jump\t// in\n    tag_160:\n        /* \"#utility.yul\":2509:2544   */\n      swap1\n      pop\n        /* \"#utility.yul\":2454:2550   */\n      swap2\n      swap1\n      pop\n      jump\t// out\n        /* \"#utility.yul\":2556:2674   */\n    tag_104:\n        /* \"#utility.yul\":2643:2667   */\n      tag_162\n        /* \"#utility.yul\":2661:2666   */\n      dup2\n        /* \"#utility.yul\":2643:2667   */\n      tag_103\n      jump\t// in\n    tag_162:\n        /* \"#utility.yul\":2638:2641   */\n      dup3\n        /* \"#utility.yul\":2631:2668   */\n      mstore\n        /* \"#utility.yul\":2556:2674   */\n      pop\n      pop\n      jump\t// out\n        /* \"#utility.yul\":2680:2902   */\n    tag_31:\n        /* \"#utility.yul\":2773:2777   */\n      0x00\n        /* \"#utility.yul\":2811:2813   */\n      0x20\n        /* \"#utility.yul\":2800:2809   */\n      dup3\n        /* \"#utility.yul\":2796:2814   */\n      add\n        /* \"#utility.yul\":2788:2814   */\n      swap1\n      pop\n        /* \"#utility.yul\":2824:2895   */\n      tag_164\n        /* \"#utility.yul\":2892:2893   */\n      0x00\n        /* \"#utility.yul\":2881:2890   */\n      dup4\n        /* \"#utility.yul\":2877:2894   */\n      add\n        /* \"#utility.yul\":2868:2874   */\n      dup5\n        /* \"#utility.yul\":2824:2895   */\n      tag_104\n      jump\t// in\n    tag_164:\n        /* \"#utility.yul\":2680:2902   */\n      swap3\n      swap2\n      pop\n      pop\n      jump\t// out\n        /* \"#utility.yul\":2908:3077   */\n    tag_105:\n        /* \"#utility.yul\":2992:3003   */\n      0x00\n        /* \"#utility.yul\":3026:3032   */\n      dup3\n        /* \"#utility.yul\":3021:3024   */\n      dup3\n        /* \"#utility.yul\":3014:3033   */\n      mstore\n        /* \"#utility.yul\":3066:3070   */\n      0x20\n        /* \"#utility.yul\":3061:3064   */\n      dup3\n        /* \"#utility.yul\":3057:3071   */\n      add\n        /* \"#utility.yul\":3042:3071   */\n      swap1\n      pop\n        /* \"#utility.yul\":2908:3077   */\n      swap3\n      swap2\n      pop\n      pop\n      jump\t// out\n        /* \"#utility.yul\":3083:3263   */\n    tag_106:\n        /* \"#utility.yul\":3223:3255   */\n      0x63616e742061636365737320617320796f7520617265206d616e616765720000\n        /* \"#utility.yul\":3219:3220   */\n      0x00\n        /* \"#utility.yul\":3211:3217   */\n      dup3\n        /* \"#utility.yul\":3207:3221   */\n      add\n        /* \"#utility.yul\":3200:3256   */\n      mstore\n        /* \"#utility.yul\":3083:3263   */\n      pop\n      jump\t// out\n        /* \"#utility.yul\":3269:3635   */\n    tag_107:\n        /* \"#utility.yul\":3411:3414   */\n      0x00\n        /* \"#utility.yul\":3432:3499   */\n      tag_168\n        /* \"#utility.yul\":3496:3498   */\n      0x1e\n        /* \"#utility.yul\":3491:3494   */\n      dup4\n        /* \"#utility.yul\":3432:3499   */\n      tag_105\n      jump\t// in\n    tag_168:\n        /* \"#utility.yul\":3425:3499   */\n      swap2\n      pop\n        /* \"#utility.yul\":3508:3601   */\n      tag_169\n        /* \"#utility.yul\":3597:3600   */\n      dup3\n        /* \"#utility.yul\":3508:3601   */\n      tag_106\n      jump\t// in\n    tag_169:\n        /* \"#utility.yul\":3626:3628   */\n      0x20\n        /* \"#utility.yul\":3621:3624   */\n      dup3\n        /* \"#utility.yul\":3617:3629   */\n      add\n        /* \"#utility.yul\":3610:3629   */\n      swap1\n      pop\n        /* \"#utility.yul\":3269:3635   */\n      swap2\n      swap1\n      pop\n      jump\t// out\n        /* \"#utility.yul\":3641:4060   */\n    tag_37:\n        /* \"#utility.yul\":3807:3811   */\n      0x00\n        /* \"#utility.yul\":3845:3847   */\n      0x20\n        /* \"#utility.yul\":3834:3843   */\n      dup3\n        /* \"#utility.yul\":3830:3848   */\n      add\n        /* \"#utility.yul\":3822:3848   */\n      swap1\n      pop\n        /* \"#utility.yul\":3894:3903   */\n      dup2\n        /* \"#utility.yul\":3888:3892   */\n      dup2\n        /* \"#utility.yul\":3884:3904   */\n      sub\n        /* \"#utility.yul\":3880:3881   */\n      0x00\n        /* \"#utility.yul\":3869:3878   */\n      dup4\n        /* \"#utility.yul\":3865:3882   */\n      add\n        /* \"#utility.yul\":3858:3905   */\n      mstore\n        /* \"#utility.yul\":3922:4053   */\n      tag_171\n        /* \"#utility.yul\":4048:4052   */\n      dup2\n        /* \"#utility.yul\":3922:4053   */\n      tag_107\n      jump\t// in\n    tag_171:\n        /* \"#utility.yul\":3914:4053   */\n      swap1\n      pop\n        /* \"#utility.yul\":3641:4060   */\n      swap2\n      swap1\n      pop\n      jump\t// out\n        /* \"#utility.yul\":4066:4242   */\n    tag_108:\n        /* \"#utility.yul\":4206:4234   */\n      0x6c6f747465727920686173206265656e20636f6d706c65746564000000000000\n        /* \"#utility.yul\":4202:4203   */\n      0x00\n        /* \"#utility.yul\":4194:4200   */\n      dup3\n        /* \"#utility.yul\":4190:4204   */\n      add\n        /* \"#utility.yul\":4183:4235   */\n      mstore\n        /* \"#utility.yul\":4066:4242   */\n      pop\n      jump\t// out\n        /* \"#utility.yul\":4248:4614   */\n    tag_109:\n        /* \"#utility.yul\":4390:4393   */\n      0x00\n        /* \"#utility.yul\":4411:4478   */\n      tag_174\n        /* \"#utility.yul\":4475:4477   */\n      0x1a\n        /* \"#utility.yul\":4470:4473   */\n      dup4\n        /* \"#utility.yul\":4411:4478   */\n      tag_105\n      jump\t// in\n    tag_174:\n        /* \"#utility.yul\":4404:4478   */\n      swap2\n      pop\n        /* \"#utility.yul\":4487:4580   */\n      tag_175\n        /* \"#utility.yul\":4576:4579   */\n      dup3\n        /* \"#utility.yul\":4487:4580   */\n      tag_108\n      jump\t// in\n    tag_175:\n        /* \"#utility.yul\":4605:4607   */\n      0x20\n        /* \"#utility.yul\":4600:4603   */\n      dup3\n        /* \"#utility.yul\":4596:4608   */\n      add\n        /* \"#utility.yul\":4589:4608   */\n      swap1\n      pop\n        /* \"#utility.yul\":4248:4614   */\n      swap2\n      swap1\n      pop\n      jump\t// out\n        /* \"#utility.yul\":4620:5039   */\n    tag_41:\n        /* \"#utility.yul\":4786:4790   */\n      0x00\n        /* \"#utility.yul\":4824:4826   */\n      0x20\n        /* \"#utility.yul\":4813:4822   */\n      dup3\n        /* \"#utility.yul\":4809:4827   */\n      add\n        /* \"#utility.yul\":4801:4827   */\n      swap1\n      pop\n        /* \"#utility.yul\":4873:4882   */\n      dup2\n        /* \"#utility.yul\":4867:4871   */\n      dup2\n        /* \"#utility.yul\":4863:4883   */\n      sub\n        /* \"#utility.yul\":4859:4860   */\n      0x00\n        /* \"#utility.yul\":4848:4857   */\n      dup4\n        /* \"#utility.yul\":4844:4861   */\n      add\n        /* \"#utility.yul\":4837:4884   */\n      mstore\n        /* \"#utility.yul\":4901:5032   */\n      tag_177\n        /* \"#utility.yul\":5027:5031   */\n      dup2\n        /* \"#utility.yul\":4901:5032   */\n      tag_109\n      jump\t// in\n    tag_177:\n        /* \"#utility.yul\":4893:5032   */\n      swap1\n      pop\n        /* \"#utility.yul\":4620:5039   */\n      swap2\n      swap1\n      pop\n      jump\t// out\n        /* \"#utility.yul\":5045:5221   */\n    tag_110:\n        /* \"#utility.yul\":5185:5213   */\n      0x616c726561647920627579206c6f7474657279207469636b6574000000000000\n        /* \"#utility.yul\":5181:5182   */\n      0x00\n        /* \"#utility.yul\":5173:5179   */\n      dup3\n        /* \"#utility.yul\":5169:5183   */\n      add\n        /* \"#utility.yul\":5162:5214   */\n      mstore\n        /* \"#utility.yul\":5045:5221   */\n      pop\n      jump\t// out\n        /* \"#utility.yul\":5227:5593   */\n    tag_111:\n        /* \"#utility.yul\":5369:5372   */\n      0x00\n        /* \"#utility.yul\":5390:5457   */\n      tag_180\n        /* \"#utility.yul\":5454:5456   */\n      0x1a\n        /* \"#utility.yul\":5449:5452   */\n      dup4\n        /* \"#utility.yul\":5390:5457   */\n      tag_105\n      jump\t// in\n    tag_180:\n        /* \"#utility.yul\":5383:5457   */\n      swap2\n      pop\n        /* \"#utility.yul\":5466:5559   */\n      tag_181\n        /* \"#utility.yul\":5555:5558   */\n      dup3\n        /* \"#utility.yul\":5466:5559   */\n      tag_110\n      jump\t// in\n    tag_181:\n        /* \"#utility.yul\":5584:5586   */\n      0x20\n        /* \"#utility.yul\":5579:5582   */\n      dup3\n        /* \"#utility.yul\":5575:5587   */\n      add\n        /* \"#utility.yul\":5568:5587   */\n      swap1\n      pop\n        /* \"#utility.yul\":5227:5593   */\n      swap2\n      swap1\n      pop\n      jump\t// out\n        /* \"#utility.yul\":5599:6018   */\n    tag_46:\n        /* \"#utility.yul\":5765:5769   */\n      0x00\n        /* \"#utility.yul\":5803:5805   */\n      0x20\n        /* \"#utility.yul\":5792:5801   */\n      dup3\n        /* \"#utility.yul\":5788:5806   */\n      add\n        /* \"#utility.yul\":5780:5806   */\n      swap1\n      pop\n        /* \"#utility.yul\":5852:5861   */\n      dup2\n        /* \"#utility.yul\":5846:5850   */\n      dup2\n        /* \"#utility.yul\":5842:5862   */\n      sub\n        /* \"#utility.yul\":5838:5839   */\n      0x00\n        /* \"#utility.yul\":5827:5836   */\n      dup4\n        /* \"#utility.yul\":5823:5840   */\n      add\n        /* \"#utility.yul\":5816:5863   */\n      mstore\n        /* \"#utility.yul\":5880:6011   */\n      tag_183\n        /* \"#utility.yul\":6006:6010   */\n      dup2\n        /* \"#utility.yul\":5880:6011   */\n      tag_111\n      jump\t// in\n    tag_183:\n        /* \"#utility.yul\":5872:6011   */\n      swap1\n      pop\n        /* \"#utility.yul\":5599:6018   */\n      swap2\n      swap1\n      pop\n      jump\t// out\n        /* \"#utility.yul\":6024:6171   */\n    tag_112:\n        /* \"#utility.yul\":6125:6136   */\n      0x00\n        /* \"#utility.yul\":6162:6165   */\n      dup2\n        /* \"#utility.yul\":6147:6165   */\n      swap1\n      pop\n        /* \"#utility.yul\":6024:6171   */\n      swap3\n      swap2\n      pop\n      pop\n      jump\t// out\n        /* \"#utility.yul\":6177:6291   */\n    tag_113:\n      pop\n      jump\t// out\n        /* \"#utility.yul\":6297:6695   */\n    tag_114:\n        /* \"#utility.yul\":6456:6459   */\n      0x00\n        /* \"#utility.yul\":6477:6560   */\n      tag_187\n        /* \"#utility.yul\":6558:6559   */\n      0x00\n        /* \"#utility.yul\":6553:6556   */\n      dup4\n        /* \"#utility.yul\":6477:6560   */\n      tag_112\n      jump\t// in\n    tag_187:\n        /* \"#utility.yul\":6470:6560   */\n      swap2\n      pop\n        /* \"#utility.yul\":6569:6662   */\n      tag_188\n        /* \"#utility.yul\":6658:6661   */\n      dup3\n        /* \"#utility.yul\":6569:6662   */\n      tag_113\n      jump\t// in\n    tag_188:\n        /* \"#utility.yul\":6687:6688   */\n      0x00\n        /* \"#utility.yul\":6682:6685   */\n      dup3\n        /* \"#utility.yul\":6678:6689   */\n      add\n        /* \"#utility.yul\":6671:6689   */\n      swap1\n      pop\n        /* \"#utility.yul\":6297:6695   */\n      swap2\n      swap1\n      pop\n      jump\t// out\n        /* \"#utility.yul\":6701:7080   */\n    tag_48:\n        /* \"#utility.yul\":6885:6888   */\n      0x00\n        /* \"#utility.yul\":6907:7054   */\n      tag_190\n        /* \"#utility.yul\":7050:7053   */\n      dup3\n        /* \"#utility.yul\":6907:7054   */\n      tag_114\n      jump\t// in\n    tag_190:\n        /* \"#utility.yul\":6900:7054   */\n      swap2\n      pop\n        /* \"#utility.yul\":7071:7074   */\n      dup2\n        /* \"#utility.yul\":7064:7074   */\n      swap1\n      pop\n        /* \"#utility.yul\":6701:7080   */\n      swap2\n      swap1\n      pop\n      jump\t// out\n        /* \"#utility.yul\":7086:7250   */\n    tag_115:\n        /* \"#utility.yul\":7226:7242   */\n      0x7472616e206973206661696c6564000000000000000000000000000000000000\n        /* \"#utility.yul\":7222:7223   */\n      0x00\n        /* \"#utility.yul\":7214:7220   */\n      dup3\n        /* \"#utility.yul\":7210:7224   */\n      add\n        /* \"#utility.yul\":7203:7243   */\n      mstore\n        /* \"#utility.yul\":7086:7250   */\n      pop\n      jump\t// out\n        /* \"#utility.yul\":7256:7622   */\n    tag_116:\n        /* \"#utility.yul\":7398:7401   */\n      0x00\n        /* \"#utility.yul\":7419:7486   */\n      tag_193\n        /* \"#utility.yul\":7483:7485   */\n      0x0e\n        /* \"#utility.yul\":7478:7481   */\n      dup4\n        /* \"#utility.yul\":7419:7486   */\n      tag_105\n      jump\t// in\n    tag_193:\n        /* \"#utility.yul\":7412:7486   */\n      swap2\n      pop\n        /* \"#utility.yul\":7495:7588   */\n      tag_194\n        /* \"#utility.yul\":7584:7587   */\n      dup3\n        /* \"#utility.yul\":7495:7588   */\n      tag_115\n      jump\t// in\n    tag_194:\n        /* \"#utility.yul\":7613:7615   */\n      0x20\n        /* \"#utility.yul\":7608:7611   */\n      dup3\n        /* \"#utility.yul\":7604:7616   */\n      add\n        /* \"#utility.yul\":7597:7616   */\n      swap1\n      pop\n        /* \"#utility.yul\":7256:7622   */\n      swap2\n      swap1\n      pop\n      jump\t// out\n        /* \"#utility.yul\":7628:8047   */\n    tag_54:\n        /* \"#utility.yul\":7794:7798   */\n      0x00\n        /* \"#utility.yul\":7832:7834   */\n      0x20\n        /* \"#utility.yul\":7821:7830   */\n      dup3\n        /* \"#utility.yul\":7817:7835   */\n      add\n        /* \"#utility.yul\":7809:7835   */\n      swap1\n      pop\n        /* \"#utility.yul\":7881:7890   */\n      dup2\n        /* \"#utility.yul\":7875:7879   */\n      dup2\n        /* \"#utility.yul\":7871:7891   */\n      sub\n        /* \"#utility.yul\":7867:7868   */\n      0x00\n        /* \"#utility.yul\":7856:7865   */\n      dup4\n        /* \"#utility.yul\":7852:7869   */\n      add\n        /* \"#utility.yul\":7845:7892   */\n      mstore\n        /* \"#utility.yul\":7909:8040   */\n      tag_196\n        /* \"#utility.yul\":8035:8039   */\n      dup2\n        /* \"#utility.yul\":7909:8040   */\n      tag_116\n      jump\t// in\n    tag_196:\n        /* \"#utility.yul\":7901:8040   */\n      swap1\n      pop\n        /* \"#utility.yul\":7628:8047   */\n      swap2\n      swap1\n      pop\n      jump\t// out\n        /* \"#utility.yul\":8053:8233   */\n    tag_117:\n        /* \"#utility.yul\":8101:8178   */\n      0x4e487b7100000000000000000000000000000000000000000000000000000000\n        /* \"#utility.yul\":8098:8099   */\n      0x00\n        /* \"#utility.yul\":8091:8179   */\n      mstore\n        /* \"#utility.yul\":8198:8202   */\n      0x11\n        /* \"#utility.yul\":8195:8196   */\n      0x04\n        /* \"#utility.yul\":8188:8203   */\n      mstore\n        /* \"#utility.yul\":8222:8226   */\n      0x24\n        /* \"#utility.yul\":8219:8220   */\n      0x00\n        /* \"#utility.yul\":8212:8227   */\n      revert\n        /* \"#utility.yul\":8239:8430   */\n    tag_56:\n        /* \"#utility.yul\":8279:8282   */\n      0x00\n        /* \"#utility.yul\":8298:8318   */\n      tag_199\n        /* \"#utility.yul\":8316:8317   */\n      dup3\n        /* \"#utility.yul\":8298:8318   */\n      tag_99\n      jump\t// in\n    tag_199:\n        /* \"#utility.yul\":8293:8318   */\n      swap2\n      pop\n        /* \"#utility.yul\":8332:8352   */\n      tag_200\n        /* \"#utility.yul\":8350:8351   */\n      dup4\n        /* \"#utility.yul\":8332:8352   */\n      tag_99\n      jump\t// in\n    tag_200:\n        /* \"#utility.yul\":8327:8352   */\n      swap3\n      pop\n        /* \"#utility.yul\":8375:8376   */\n      dup3\n        /* \"#utility.yul\":8372:8373   */\n      dup3\n        /* \"#utility.yul\":8368:8377   */\n      add\n        /* \"#utility.yul\":8361:8377   */\n      swap1\n      pop\n        /* \"#utility.yul\":8396:8399   */\n      dup1\n        /* \"#utility.yul\":8393:8394   */\n      dup3\n        /* \"#utility.yul\":8390:8400   */\n      gt\n        /* \"#utility.yul\":8387:8423   */\n      iszero\n      tag_201\n      jumpi\n        /* \"#utility.yul\":8403:8421   */\n      tag_202\n      tag_117\n      jump\t// in\n    tag_202:\n        /* \"#utility.yul\":8387:8423   */\n    tag_201:\n        /* \"#utility.yul\":8239:8430   */\n      swap3\n      swap2\n      pop\n      pop\n      jump\t// out\n        /* \"#utility.yul\":8436:8611   */\n    tag_118:\n        /* \"#utility.yul\":8576:8603   */\n      0x6c6f747465727920686173206e6f7420636f6d706c6574656400000000000000\n        /* \"#utility.yul\":8572:8573   */\n      0x00\n        /* \"#utility.yul\":8564:8570   */\n      dup3\n        /* \"#utility.yul\":8560:8574   */\n      add\n        /* \"#utility.yul\":8553:8604   */\n      mstore\n        /* \"#utility.yul\":8436:8611   */\n      pop\n      jump\t// out\n        /* \"#utility.yul\":8617:8983   */\n    tag_119:\n        /* \"#utility.yul\":8759:8762   */\n      0x00\n        /* \"#utility.yul\":8780:8847   */\n      tag_205\n        /* \"#utility.yul\":8844:8846   */\n      0x19\n        /* \"#utility.yul\":8839:8842   */\n      dup4\n        /* \"#utility.yul\":8780:8847   */\n      tag_105\n      jump\t// in\n    tag_205:\n        /* \"#utility.yul\":8773:8847   */\n      swap2\n      pop\n        /* \"#utility.yul\":8856:8949   */\n      tag_206\n        /* \"#utility.yul\":8945:8948   */\n      dup3\n        /* \"#utility.yul\":8856:8949   */\n      tag_118\n      jump\t// in\n    tag_206:\n        /* \"#utility.yul\":8974:8976   */\n      0x20\n        /* \"#utility.yul\":8969:8972   */\n      dup3\n        /* \"#utility.yul\":8965:8977   */\n      add\n        /* \"#utility.yul\":8958:8977   */\n      swap1\n      pop\n        /* \"#utility.yul\":8617:8983   */\n      swap2\n      swap1\n      pop\n      jump\t// out\n        /* \"#utility.yul\":8989:9408   */\n    tag_61:\n        /* \"#utility.yul\":9155:9159   */\n      0x00\n        /* \"#utility.yul\":9193:9195   */\n      0x20\n        /* \"#utility.yul\":9182:9191   */\n      dup3\n        /* \"#utility.yul\":9178:9196   */\n      add\n        /* \"#utility.yul\":9170:9196   */\n      swap1\n      pop\n        /* \"#utility.yul\":9242:9251   */\n      dup2\n        /* \"#utility.yul\":9236:9240   */\n      dup2\n        /* \"#utility.yul\":9232:9252   */\n      sub\n        /* \"#utility.yul\":9228:9229   */\n      0x00\n        /* \"#utility.yul\":9217:9226   */\n      dup4\n        /* \"#utility.yul\":9213:9230   */\n      add\n        /* \"#utility.yul\":9206:9253   */\n      mstore\n        /* \"#utility.yul\":9270:9401   */\n      tag_208\n        /* \"#utility.yul\":9396:9400   */\n      dup2\n        /* \"#utility.yul\":9270:9401   */\n      tag_119\n      jump\t// in\n    tag_208:\n        /* \"#utility.yul\":9262:9401   */\n      swap1\n      pop\n        /* \"#utility.yul\":8989:9408   */\n      swap2\n      swap1\n      pop\n      jump\t// out\n        /* \"#utility.yul\":9414:9594   */\n    tag_64:\n        /* \"#utility.yul\":9462:9539   */\n      0x4e487b7100000000000000000000000000000000000000000000000000000000\n        /* \"#utility.yul\":9459:9460   */\n      0x00\n        /* \"#utility.yul\":9452:9540   */\n      mstore\n        /* \"#utility.yul\":9559:9563   */\n      0x32\n        /* \"#utility.yul\":9556:9557   */\n      0x04\n        /* \"#utility.yul\":9549:9564   */\n      mstore\n        /* \"#utility.yul\":9583:9587   */\n      0x24\n        /* \"#utility.yul\":9580:9581   */\n      0x00\n        /* \"#utility.yul\":9573:9588   */\n      revert\n        /* \"#utility.yul\":9600:9769   */\n    tag_120:\n        /* \"#utility.yul\":9740:9761   */\n      0x796f7520617265206e6f74206d616e6167657200000000000000000000000000\n        /* \"#utility.yul\":9736:9737   */\n      0x00\n        /* \"#utility.yul\":9728:9734   */\n      dup3\n        /* \"#utility.yul\":9724:9738   */\n      add\n        /* \"#utility.yul\":9717:9762   */\n      mstore\n        /* \"#utility.yul\":9600:9769   */\n      pop\n      jump\t// out\n        /* \"#utility.yul\":9775:10141   */\n    tag_121:\n        /* \"#utility.yul\":9917:9920   */\n      0x00\n        /* \"#utility.yul\":9938:10005   */\n      tag_212\n        /* \"#utility.yul\":10002:10004   */\n      0x13\n        /* \"#utility.yul\":9997:10000   */\n      dup4\n        /* \"#utility.yul\":9938:10005   */\n      tag_105\n      jump\t// in\n    tag_212:\n        /* \"#utility.yul\":9931:10005   */\n      swap2\n      pop\n        /* \"#utility.yul\":10014:10107   */\n      tag_213\n        /* \"#utility.yul\":10103:10106   */\n      dup3\n        /* \"#utility.yul\":10014:10107   */\n      tag_120\n      jump\t// in\n    tag_213:\n        /* \"#utility.yul\":10132:10134   */\n      0x20\n        /* \"#utility.yul\":10127:10130   */\n      dup3\n        /* \"#utility.yul\":10123:10135   */\n      add\n        /* \"#utility.yul\":10116:10135   */\n      swap1\n      pop\n        /* \"#utility.yul\":9775:10141   */\n      swap2\n      swap1\n      pop\n      jump\t// out\n        /* \"#utility.yul\":10147:10566   */\n    tag_69:\n        /* \"#utility.yul\":10313:10317   */\n      0x00\n        /* \"#utility.yul\":10351:10353   */\n      0x20\n        /* \"#utility.yul\":10340:10349   */\n      dup3\n        /* \"#utility.yul\":10336:10354   */\n      add\n        /* \"#utility.yul\":10328:10354   */\n      swap1\n      pop\n        /* \"#utility.yul\":10400:10409   */\n      dup2\n        /* \"#utility.yul\":10394:10398   */\n      dup2\n        /* \"#utility.yul\":10390:10410   */\n      sub\n        /* \"#utility.yul\":10386:10387   */\n      0x00\n        /* \"#utility.yul\":10375:10384   */\n      dup4\n        /* \"#utility.yul\":10371:10388   */\n      add\n        /* \"#utility.yul\":10364:10411   */\n      mstore\n        /* \"#utility.yul\":10428:10559   */\n      tag_215\n        /* \"#utility.yul\":10554:10558   */\n      dup2\n        /* \"#utility.yul\":10428:10559   */\n      tag_121\n      jump\t// in\n    tag_215:\n        /* \"#utility.yul\":10420:10559   */\n      swap1\n      pop\n        /* \"#utility.yul\":10147:10566   */\n      swap2\n      swap1\n      pop\n      jump\t// out\n        /* \"#utility.yul\":10572:10752   */\n    tag_122:\n        /* \"#utility.yul\":10620:10697   */\n      0x4e487b7100000000000000000000000000000000000000000000000000000000\n        /* \"#utility.yul\":10617:10618   */\n      0x00\n        /* \"#utility.yul\":10610:10698   */\n      mstore\n        /* \"#utility.yul\":10717:10721   */\n      0x12\n        /* \"#utility.yul\":10714:10715   */\n      0x04\n        /* \"#utility.yul\":10707:10722   */\n      mstore\n        /* \"#utility.yul\":10741:10745   */\n      0x24\n        /* \"#utility.yul\":10738:10739   */\n      0x00\n        /* \"#utility.yul\":10731:10746   */\n      revert\n        /* \"#utility.yul\":10758:10934   */\n    tag_74:\n        /* \"#utility.yul\":10790:10791   */\n      0x00\n        /* \"#utility.yul\":10807:10827   */\n      tag_218\n        /* \"#utility.yul\":10825:10826   */\n      dup3\n        /* \"#utility.yul\":10807:10827   */\n      tag_99\n      jump\t// in\n    tag_218:\n        /* \"#utility.yul\":10802:10827   */\n      swap2\n      pop\n        /* \"#utility.yul\":10841:10861   */\n      tag_219\n        /* \"#utility.yul\":10859:10860   */\n      dup4\n        /* \"#utility.yul\":10841:10861   */\n      tag_99\n      jump\t// in\n    tag_219:\n        /* \"#utility.yul\":10836:10861   */\n      swap3\n      pop\n        /* \"#utility.yul\":10880:10881   */\n      dup3\n        /* \"#utility.yul\":10870:10905   */\n      tag_220\n      jumpi\n        /* \"#utility.yul\":10885:10903   */\n      tag_221\n      tag_122\n      jump\t// in\n    tag_221:\n        /* \"#utility.yul\":10870:10905   */\n    tag_220:\n        /* \"#utility.yul\":10926:10927   */\n      dup3\n        /* \"#utility.yul\":10923:10924   */\n      dup3\n        /* \"#utility.yul\":10919:10928   */\n      mod\n        /* \"#utility.yul\":10914:10928   */\n      swap1\n      pop\n        /* \"#utility.yul\":10758:10934   */\n      swap3\n      swap2\n      pop\n      pop\n      jump\t// out\n        /* \"#utility.yul\":10940:11019   */\n    tag_123:\n        /* \"#utility.yul\":10979:10986   */\n      0x00\n        /* \"#utility.yul\":11008:11013   */\n      dup2\n        /* \"#utility.yul\":10997:11013   */\n      swap1\n      pop\n        /* \"#utility.yul\":10940:11019   */\n      swap2\n      swap1\n      pop\n      jump\t// out\n        /* \"#utility.yul\":11025:11182   */\n    tag_124:\n        /* \"#utility.yul\":11130:11175   */\n      tag_224\n        /* \"#utility.yul\":11150:11174   */\n      tag_225\n        /* \"#utility.yul\":11168:11173   */\n      dup3\n        /* \"#utility.yul\":11150:11174   */\n      tag_99\n      jump\t// in\n    tag_225:\n        /* \"#utility.yul\":11130:11175   */\n      tag_123\n      jump\t// in\n    tag_224:\n        /* \"#utility.yul\":11125:11128   */\n      dup3\n        /* \"#utility.yul\":11118:11176   */\n      mstore\n        /* \"#utility.yul\":11025:11182   */\n      pop\n      pop\n      jump\t// out\n        /* \"#utility.yul\":11188:11282   */\n    tag_125:\n        /* \"#utility.yul\":11221:11229   */\n      0x00\n        /* \"#utility.yul\":11269:11274   */\n      dup2\n        /* \"#utility.yul\":11265:11267   */\n      0x60\n        /* \"#utility.yul\":11261:11275   */\n      shl\n        /* \"#utility.yul\":11240:11275   */\n      swap1\n      pop\n        /* \"#utility.yul\":11188:11282   */\n      swap2\n      swap1\n      pop\n      jump\t// out\n        /* \"#utility.yul\":11288:11382   */\n    tag_126:\n        /* \"#utility.yul\":11327:11334   */\n      0x00\n        /* \"#utility.yul\":11356:11376   */\n      tag_228\n        /* \"#utility.yul\":11370:11375   */\n      dup3\n        /* \"#utility.yul\":11356:11376   */\n      tag_125\n      jump\t// in\n    tag_228:\n        /* \"#utility.yul\":11345:11376   */\n      swap1\n      pop\n        /* \"#utility.yul\":11288:11382   */\n      swap2\n      swap1\n      pop\n      jump\t// out\n        /* \"#utility.yul\":11388:11488   */\n    tag_127:\n        /* \"#utility.yul\":11427:11434   */\n      0x00\n        /* \"#utility.yul\":11456:11482   */\n      tag_230\n        /* \"#utility.yul\":11476:11481   */\n      dup3\n        /* \"#utility.yul\":11456:11482   */\n      tag_126\n      jump\t// in\n    tag_230:\n        /* \"#utility.yul\":11445:11482   */\n      swap1\n      pop\n        /* \"#utility.yul\":11388:11488   */\n      swap2\n      swap1\n      pop\n      jump\t// out\n        /* \"#utility.yul\":11494:11651   */\n    tag_128:\n        /* \"#utility.yul\":11599:11644   */\n      tag_232\n        /* \"#utility.yul\":11619:11643   */\n      tag_233\n        /* \"#utility.yul\":11637:11642   */\n      dup3\n        /* \"#utility.yul\":11619:11643   */\n      tag_103\n      jump\t// in\n    tag_233:\n        /* \"#utility.yul\":11599:11644   */\n      tag_127\n      jump\t// in\n    tag_232:\n        /* \"#utility.yul\":11594:11597   */\n      dup3\n        /* \"#utility.yul\":11587:11645   */\n      mstore\n        /* \"#utility.yul\":11494:11651   */\n      pop\n      pop\n      jump\t// out\n        /* \"#utility.yul\":11657:12195   */\n    tag_90:\n        /* \"#utility.yul\":11825:11828   */\n      0x00\n        /* \"#utility.yul\":11840:11915   */\n      tag_235\n        /* \"#utility.yul\":11911:11914   */\n      dup3\n        /* \"#utility.yul\":11902:11908   */\n      dup7\n        /* \"#utility.yul\":11840:11915   */\n      tag_124\n      jump\t// in\n    tag_235:\n        /* \"#utility.yul\":11940:11942   */\n      0x20\n        /* \"#utility.yul\":11935:11938   */\n      dup3\n        /* \"#utility.yul\":11931:11943   */\n      add\n        /* \"#utility.yul\":11924:11943   */\n      swap2\n      pop\n        /* \"#utility.yul\":11953:12028   */\n      tag_236\n        /* \"#utility.yul\":12024:12027   */\n      dup3\n        /* \"#utility.yul\":12015:12021   */\n      dup6\n        /* \"#utility.yul\":11953:12028   */\n      tag_128\n      jump\t// in\n    tag_236:\n        /* \"#utility.yul\":12053:12055   */\n      0x14\n        /* \"#utility.yul\":12048:12051   */\n      dup3\n        /* \"#utility.yul\":12044:12056   */\n      add\n        /* \"#utility.yul\":12037:12056   */\n      swap2\n      pop\n        /* \"#utility.yul\":12066:12141   */\n      tag_237\n        /* \"#utility.yul\":12137:12140   */\n      dup3\n        /* \"#utility.yul\":12128:12134   */\n      dup5\n        /* \"#utility.yul\":12066:12141   */\n      tag_124\n      jump\t// in\n    tag_237:\n        /* \"#utility.yul\":12166:12168   */\n      0x20\n        /* \"#utility.yul\":12161:12164   */\n      dup3\n        /* \"#utility.yul\":12157:12169   */\n      add\n        /* \"#utility.yul\":12150:12169   */\n      swap2\n      pop\n        /* \"#utility.yul\":12186:12189   */\n      dup2\n        /* \"#utility.yul\":12179:12189   */\n      swap1\n      pop\n        /* \"#utility.yul\":11657:12195   */\n      swap5\n      swap4\n      pop\n      pop\n      pop\n      pop\n      jump\t// out\n\n    auxdata: 0xa2646970667358221220862083cdaa77693869839bccf6880afb1296a799c961dbb7269affee76009f5464736f6c63430008160033\n}\n",
				"bytecode": {
					"linkReferences": {},
					"object": "60806040525f60035f6101000a81548160ff021916908315150217905550348015610028575f80fd5b50335f806101000a81548173ffffffffffffffffffffffffffffffffffffffff021916908373ffffffffffffffffffffffffffffffffffffffff160217905550610d15806100755f395ff3fe608060405260043610610054575f3560e01c8063481c6a75146100585780639d9a7fe914610082578063a59f3e0c146100ac578063aa8c217c146100c8578063b7e03264146100f2578063cd38aa871461011c575b5f80fd5b348015610063575f80fd5b5061006c610126565b6040516100799190610784565b60405180910390f35b34801561008d575f80fd5b50610096610149565b6040516100a391906107b7565b60405180910390f35b6100c660048036038101906100c19190610807565b61015b565b005b3480156100d3575f80fd5b506100dc610417565b6040516100e99190610841565b60405180910390f35b3480156100fd575f80fd5b5061010661041d565b604051610113919061087a565b60405180910390f35b6101246104af565b005b5f8054906101000a900473ffffffffffffffffffffffffffffffffffffffff1681565b60035f9054906101000a900460ff1681565b5f8054906101000a900473ffffffffffffffffffffffffffffffffffffffff1673ffffffffffffffffffffffffffffffffffffffff163373ffffffffffffffffffffffffffffffffffffffff16036101e8576040517f08c379a00000000000000000000000000000000000000000000000000000000081526004016101df906108ed565b60405180910390fd5b60035f9054906101000a900460ff1615610237576040517f08c379a000000000000000000000000000000000000000000000000000000000815260040161022e90610955565b60405180910390fd5b61023f6106ad565b61027e576040517f08c379a0000000000000000000000000000000000000000000000000000000008152600401610275906109bd565b60405180910390fd5b5f805f9054906101000a900473ffffffffffffffffffffffffffffffffffffffff1673ffffffffffffffffffffffffffffffffffffffff16826040516102c390610a08565b5f6040518083038185875af1925050503d805f81146102fd576040519150601f19603f3d011682016040523d82523d5f602084013e610302565b606091505b5050905080610346576040517f08c379a000000000000000000000000000000000000000000000000000000000815260040161033d90610a66565b60405180910390fd5b8160025f8282546103579190610ab1565b92505081905550600133908060018154018082558091505060019003905f5260205f20015f9091909190916101000a81548173ffffffffffffffffffffffffffffffffffffffff021916908373ffffffffffffffffffffffffffffffffffffffff160217905550600160045f3373ffffffffffffffffffffffffffffffffffffffff1673ffffffffffffffffffffffffffffffffffffffff1681526020019081526020015f205f6101000a81548160ff0219169083151502179055505050565b60025481565b5f60035f9054906101000a900460ff1661046c576040517f08c379a000000000000000000000000000000000000000000000000000000000815260040161046390610b2e565b60405180910390fd5b60016005548154811061048257610481610b4c565b5b905f5260205f20015f9054906101000a900473ffffffffffffffffffffffffffffffffffffffff16905090565b5f8054906101000a900473ffffffffffffffffffffffffffffffffffffffff1673ffffffffffffffffffffffffffffffffffffffff163373ffffffffffffffffffffffffffffffffffffffff161461053c576040517f08c379a000000000000000000000000000000000000000000000000000000000815260040161053390610bc3565b60405180910390fd5b60018054905061054a61070d565b6105549190610c0e565b60058190555060035f9054906101000a900460ff16156105a9576040517f08c379a00000000000000000000000000000000000000000000000000000000081526004016105a090610955565b60405180910390fd5b5f6001600554815481106105c0576105bf610b4c565b5b905f5260205f20015f9054906101000a900473ffffffffffffffffffffffffffffffffffffffff1673ffffffffffffffffffffffffffffffffffffffff1660025460405161060d90610a08565b5f6040518083038185875af1925050503d805f8114610647576040519150601f19603f3d011682016040523d82523d5f602084013e61064c565b606091505b5050905080610690576040517f08c379a000000000000000000000000000000000000000000000000000000000815260040161068790610a66565b60405180910390fd5b600160035f6101000a81548160ff02191690831515021790555050565b5f60045f3373ffffffffffffffffffffffffffffffffffffffff1673ffffffffffffffffffffffffffffffffffffffff1681526020019081526020015f205f9054906101000a900460ff1615610705575f905061070a565b600190505b90565b5f805f905042338260405160200161072793929190610ca3565b604051602081830303815290604052805190602001205f1c91505090565b5f73ffffffffffffffffffffffffffffffffffffffff82169050919050565b5f61076e82610745565b9050919050565b61077e81610764565b82525050565b5f6020820190506107975f830184610775565b92915050565b5f8115159050919050565b6107b18161079d565b82525050565b5f6020820190506107ca5f8301846107a8565b92915050565b5f80fd5b5f819050919050565b6107e6816107d4565b81146107f0575f80fd5b50565b5f81359050610801816107dd565b92915050565b5f6020828403121561081c5761081b6107d0565b5b5f610829848285016107f3565b91505092915050565b61083b816107d4565b82525050565b5f6020820190506108545f830184610832565b92915050565b5f61086482610745565b9050919050565b6108748161085a565b82525050565b5f60208201905061088d5f83018461086b565b92915050565b5f82825260208201905092915050565b7f63616e742061636365737320617320796f7520617265206d616e6167657200005f82015250565b5f6108d7601e83610893565b91506108e2826108a3565b602082019050919050565b5f6020820190508181035f830152610904816108cb565b9050919050565b7f6c6f747465727920686173206265656e20636f6d706c657465640000000000005f82015250565b5f61093f601a83610893565b915061094a8261090b565b602082019050919050565b5f6020820190508181035f83015261096c81610933565b9050919050565b7f616c726561647920627579206c6f7474657279207469636b65740000000000005f82015250565b5f6109a7601a83610893565b91506109b282610973565b602082019050919050565b5f6020820190508181035f8301526109d48161099b565b9050919050565b5f81905092915050565b50565b5f6109f35f836109db565b91506109fe826109e5565b5f82019050919050565b5f610a12826109e8565b9150819050919050565b7f7472616e206973206661696c65640000000000000000000000000000000000005f82015250565b5f610a50600e83610893565b9150610a5b82610a1c565b602082019050919050565b5f6020820190508181035f830152610a7d81610a44565b9050919050565b7f4e487b71000000000000000000000000000000000000000000000000000000005f52601160045260245ffd5b5f610abb826107d4565b9150610ac6836107d4565b9250828201905080821115610ade57610add610a84565b5b92915050565b7f6c6f747465727920686173206e6f7420636f6d706c65746564000000000000005f82015250565b5f610b18601983610893565b9150610b2382610ae4565b602082019050919050565b5f6020820190508181035f830152610b4581610b0c565b9050919050565b7f4e487b71000000000000000000000000000000000000000000000000000000005f52603260045260245ffd5b7f796f7520617265206e6f74206d616e61676572000000000000000000000000005f82015250565b5f610bad601383610893565b9150610bb882610b79565b602082019050919050565b5f6020820190508181035f830152610bda81610ba1565b9050919050565b7f4e487b71000000000000000000000000000000000000000000000000000000005f52601260045260245ffd5b5f610c18826107d4565b9150610c23836107d4565b925082610c3357610c32610be1565b5b828206905092915050565b5f819050919050565b610c58610c53826107d4565b610c3e565b82525050565b5f8160601b9050919050565b5f610c7482610c5e565b9050919050565b5f610c8582610c6a565b9050919050565b610c9d610c988261085a565b610c7b565b82525050565b5f610cae8286610c47565b602082019150610cbe8285610c8c565b601482019150610cce8284610c47565b60208201915081905094935050505056fea2646970667358221220862083cdaa77693869839bccf6880afb1296a799c961dbb7269affee76009f5464736f6c63430008160033",
					"opcodes": "PUSH1 0x80 PUSH1 0x40 MSTORE PUSH0 PUSH1 0x3 PUSH0 PUSH2 0x100 EXP DUP2 SLOAD DUP2 PUSH1 0xFF MUL NOT AND SWAP1 DUP4 ISZERO ISZERO MUL OR SWAP1 SSTORE POP CALLVALUE DUP1 ISZERO PUSH2 0x28 JUMPI PUSH0 DUP1 REVERT JUMPDEST POP CALLER PUSH0 DUP1 PUSH2 0x100 EXP DUP2 SLOAD DUP2 PUSH20 0xFFFFFFFFFFFFFFFFFFFFFFFFFFFFFFFFFFFFFFFF MUL NOT AND SWAP1 DUP4 PUSH20 0xFFFFFFFFFFFFFFFFFFFFFFFFFFFFFFFFFFFFFFFF AND MUL OR SWAP1 SSTORE POP PUSH2 0xD15 DUP1 PUSH2 0x75 PUSH0 CODECOPY PUSH0 RETURN INVALID PUSH1 0x80 PUSH1 0x40 MSTORE PUSH1 0x4 CALLDATASIZE LT PUSH2 0x54 JUMPI PUSH0 CALLDATALOAD PUSH1 0xE0 SHR DUP1 PUSH4 0x481C6A75 EQ PUSH2 0x58 JUMPI DUP1 PUSH4 0x9D9A7FE9 EQ PUSH2 0x82 JUMPI DUP1 PUSH4 0xA59F3E0C EQ PUSH2 0xAC JUMPI DUP1 PUSH4 0xAA8C217C EQ PUSH2 0xC8 JUMPI DUP1 PUSH4 0xB7E03264 EQ PUSH2 0xF2 JUMPI DUP1 PUSH4 0xCD38AA87 EQ PUSH2 0x11C JUMPI JUMPDEST PUSH0 DUP1 REVERT JUMPDEST CALLVALUE DUP1 ISZERO PUSH2 0x63 JUMPI PUSH0 DUP1 REVERT JUMPDEST POP PUSH2 0x6C PUSH2 0x126 JUMP JUMPDEST PUSH1 0x40 MLOAD PUSH2 0x79 SWAP2 SWAP1 PUSH2 0x784 JUMP JUMPDEST PUSH1 0x40 MLOAD DUP1 SWAP2 SUB SWAP1 RETURN JUMPDEST CALLVALUE DUP1 ISZERO PUSH2 0x8D JUMPI PUSH0 DUP1 REVERT JUMPDEST POP PUSH2 0x96 PUSH2 0x149 JUMP JUMPDEST PUSH1 0x40 MLOAD PUSH2 0xA3 SWAP2 SWAP1 PUSH2 0x7B7 JUMP JUMPDEST PUSH1 0x40 MLOAD DUP1 SWAP2 SUB SWAP1 RETURN JUMPDEST PUSH2 0xC6 PUSH1 0x4 DUP1 CALLDATASIZE SUB DUP2 ADD SWAP1 PUSH2 0xC1 SWAP2 SWAP1 PUSH2 0x807 JUMP JUMPDEST PUSH2 0x15B JUMP JUMPDEST STOP JUMPDEST CALLVALUE DUP1 ISZERO PUSH2 0xD3 JUMPI PUSH0 DUP1 REVERT JUMPDEST POP PUSH2 0xDC PUSH2 0x417 JUMP JUMPDEST PUSH1 0x40 MLOAD PUSH2 0xE9 SWAP2 SWAP1 PUSH2 0x841 JUMP JUMPDEST PUSH1 0x40 MLOAD DUP1 SWAP2 SUB SWAP1 RETURN JUMPDEST CALLVALUE DUP1 ISZERO PUSH2 0xFD JUMPI PUSH0 DUP1 REVERT JUMPDEST POP PUSH2 0x106 PUSH2 0x41D JUMP JUMPDEST PUSH1 0x40 MLOAD PUSH2 0x113 SWAP2 SWAP1 PUSH2 0x87A JUMP JUMPDEST PUSH1 0x40 MLOAD DUP1 SWAP2 SUB SWAP1 RETURN JUMPDEST PUSH2 0x124 PUSH2 0x4AF JUMP JUMPDEST STOP JUMPDEST PUSH0 DUP1 SLOAD SWAP1 PUSH2 0x100 EXP SWAP1 DIV PUSH20 0xFFFFFFFFFFFFFFFFFFFFFFFFFFFFFFFFFFFFFFFF AND DUP2 JUMP JUMPDEST PUSH1 0x3 PUSH0 SWAP1 SLOAD SWAP1 PUSH2 0x100 EXP SWAP1 DIV PUSH1 0xFF AND DUP2 JUMP JUMPDEST PUSH0 DUP1 SLOAD SWAP1 PUSH2 0x100 EXP SWAP1 DIV PUSH20 0xFFFFFFFFFFFFFFFFFFFFFFFFFFFFFFFFFFFFFFFF AND PUSH20 0xFFFFFFFFFFFFFFFFFFFFFFFFFFFFFFFFFFFFFFFF AND CALLER PUSH20 0xFFFFFFFFFFFFFFFFFFFFFFFFFFFFFFFFFFFFFFFF AND SUB PUSH2 0x1E8 JUMPI PUSH1 0x40 MLOAD PUSH32 0x8C379A000000000000000000000000000000000000000000000000000000000 DUP2 MSTORE PUSH1 0x4 ADD PUSH2 0x1DF SWAP1 PUSH2 0x8ED JUMP JUMPDEST PUSH1 0x40 MLOAD DUP1 SWAP2 SUB SWAP1 REVERT JUMPDEST PUSH1 0x3 PUSH0 SWAP1 SLOAD SWAP1 PUSH2 0x100 EXP SWAP1 DIV PUSH1 0xFF AND ISZERO PUSH2 0x237 JUMPI PUSH1 0x40 MLOAD PUSH32 0x8C379A000000000000000000000000000000000000000000000000000000000 DUP2 MSTORE PUSH1 0x4 ADD PUSH2 0x22E SWAP1 PUSH2 0x955 JUMP JUMPDEST PUSH1 0x40 MLOAD DUP1 SWAP2 SUB SWAP1 REVERT JUMPDEST PUSH2 0x23F PUSH2 0x6AD JUMP JUMPDEST PUSH2 0x27E JUMPI PUSH1 0x40 MLOAD PUSH32 0x8C379A000000000000000000000000000000000000000000000000000000000 DUP2 MSTORE PUSH1 0x4 ADD PUSH2 0x275 SWAP1 PUSH2 0x9BD JUMP JUMPDEST PUSH1 0x40 MLOAD DUP1 SWAP2 SUB SWAP1 REVERT JUMPDEST PUSH0 DUP1 PUSH0 SWAP1 SLOAD SWAP1 PUSH2 0x100 EXP SWAP1 DIV PUSH20 0xFFFFFFFFFFFFFFFFFFFFFFFFFFFFFFFFFFFFFFFF AND PUSH20 0xFFFFFFFFFFFFFFFFFFFFFFFFFFFFFFFFFFFFFFFF AND DUP3 PUSH1 0x40 MLOAD PUSH2 0x2C3 SWAP1 PUSH2 0xA08 JUMP JUMPDEST PUSH0 PUSH1 0x40 MLOAD DUP1 DUP4 SUB DUP2 DUP6 DUP8 GAS CALL SWAP3 POP POP POP RETURNDATASIZE DUP1 PUSH0 DUP2 EQ PUSH2 0x2FD JUMPI PUSH1 0x40 MLOAD SWAP2 POP PUSH1 0x1F NOT PUSH1 0x3F RETURNDATASIZE ADD AND DUP3 ADD PUSH1 0x40 MSTORE RETURNDATASIZE DUP3 MSTORE RETURNDATASIZE PUSH0 PUSH1 0x20 DUP5 ADD RETURNDATACOPY PUSH2 0x302 JUMP JUMPDEST PUSH1 0x60 SWAP2 POP JUMPDEST POP POP SWAP1 POP DUP1 PUSH2 0x346 JUMPI PUSH1 0x40 MLOAD PUSH32 0x8C379A000000000000000000000000000000000000000000000000000000000 DUP2 MSTORE PUSH1 0x4 ADD PUSH2 0x33D SWAP1 PUSH2 0xA66 JUMP JUMPDEST PUSH1 0x40 MLOAD DUP1 SWAP2 SUB SWAP1 REVERT JUMPDEST DUP2 PUSH1 0x2 PUSH0 DUP3 DUP3 SLOAD PUSH2 0x357 SWAP2 SWAP1 PUSH2 0xAB1 JUMP JUMPDEST SWAP3 POP POP DUP2 SWAP1 SSTORE POP PUSH1 0x1 CALLER SWAP1 DUP1 PUSH1 0x1 DUP2 SLOAD ADD DUP1 DUP3 SSTORE DUP1 SWAP2 POP POP PUSH1 0x1 SWAP1 SUB SWAP1 PUSH0 MSTORE PUSH1 0x20 PUSH0 KECCAK256 ADD PUSH0 SWAP1 SWAP2 SWAP1 SWAP2 SWAP1 SWAP2 PUSH2 0x100 EXP DUP2 SLOAD DUP2 PUSH20 0xFFFFFFFFFFFFFFFFFFFFFFFFFFFFFFFFFFFFFFFF MUL NOT AND SWAP1 DUP4 PUSH20 0xFFFFFFFFFFFFFFFFFFFFFFFFFFFFFFFFFFFFFFFF AND MUL OR SWAP1 SSTORE POP PUSH1 0x1 PUSH1 0x4 PUSH0 CALLER PUSH20 0xFFFFFFFFFFFFFFFFFFFFFFFFFFFFFFFFFFFFFFFF AND PUSH20 0xFFFFFFFFFFFFFFFFFFFFFFFFFFFFFFFFFFFFFFFF AND DUP2 MSTORE PUSH1 0x20 ADD SWAP1 DUP2 MSTORE PUSH1 0x20 ADD PUSH0 KECCAK256 PUSH0 PUSH2 0x100 EXP DUP2 SLOAD DUP2 PUSH1 0xFF MUL NOT AND SWAP1 DUP4 ISZERO ISZERO MUL OR SWAP1 SSTORE POP POP POP JUMP JUMPDEST PUSH1 0x2 SLOAD DUP2 JUMP JUMPDEST PUSH0 PUSH1 0x3 PUSH0 SWAP1 SLOAD SWAP1 PUSH2 0x100 EXP SWAP1 DIV PUSH1 0xFF AND PUSH2 0x46C JUMPI PUSH1 0x40 MLOAD PUSH32 0x8C379A000000000000000000000000000000000000000000000000000000000 DUP2 MSTORE PUSH1 0x4 ADD PUSH2 0x463 SWAP1 PUSH2 0xB2E JUMP JUMPDEST PUSH1 0x40 MLOAD DUP1 SWAP2 SUB SWAP1 REVERT JUMPDEST PUSH1 0x1 PUSH1 0x5 SLOAD DUP2 SLOAD DUP2 LT PUSH2 0x482 JUMPI PUSH2 0x481 PUSH2 0xB4C JUMP JUMPDEST JUMPDEST SWAP1 PUSH0 MSTORE PUSH1 0x20 PUSH0 KECCAK256 ADD PUSH0 SWAP1 SLOAD SWAP1 PUSH2 0x100 EXP SWAP1 DIV PUSH20 0xFFFFFFFFFFFFFFFFFFFFFFFFFFFFFFFFFFFFFFFF AND SWAP1 POP SWAP1 JUMP JUMPDEST PUSH0 DUP1 SLOAD SWAP1 PUSH2 0x100 EXP SWAP1 DIV PUSH20 0xFFFFFFFFFFFFFFFFFFFFFFFFFFFFFFFFFFFFFFFF AND PUSH20 0xFFFFFFFFFFFFFFFFFFFFFFFFFFFFFFFFFFFFFFFF AND CALLER PUSH20 0xFFFFFFFFFFFFFFFFFFFFFFFFFFFFFFFFFFFFFFFF AND EQ PUSH2 0x53C JUMPI PUSH1 0x40 MLOAD PUSH32 0x8C379A000000000000000000000000000000000000000000000000000000000 DUP2 MSTORE PUSH1 0x4 ADD PUSH2 0x533 SWAP1 PUSH2 0xBC3 JUMP JUMPDEST PUSH1 0x40 MLOAD DUP1 SWAP2 SUB SWAP1 REVERT JUMPDEST PUSH1 0x1 DUP1 SLOAD SWAP1 POP PUSH2 0x54A PUSH2 0x70D JUMP JUMPDEST PUSH2 0x554 SWAP2 SWAP1 PUSH2 0xC0E JUMP JUMPDEST PUSH1 0x5 DUP2 SWAP1 SSTORE POP PUSH1 0x3 PUSH0 SWAP1 SLOAD SWAP1 PUSH2 0x100 EXP SWAP1 DIV PUSH1 0xFF AND ISZERO PUSH2 0x5A9 JUMPI PUSH1 0x40 MLOAD PUSH32 0x8C379A000000000000000000000000000000000000000000000000000000000 DUP2 MSTORE PUSH1 0x4 ADD PUSH2 0x5A0 SWAP1 PUSH2 0x955 JUMP JUMPDEST PUSH1 0x40 MLOAD DUP1 SWAP2 SUB SWAP1 REVERT JUMPDEST PUSH0 PUSH1 0x1 PUSH1 0x5 SLOAD DUP2 SLOAD DUP2 LT PUSH2 0x5C0 JUMPI PUSH2 0x5BF PUSH2 0xB4C JUMP JUMPDEST JUMPDEST SWAP1 PUSH0 MSTORE PUSH1 0x20 PUSH0 KECCAK256 ADD PUSH0 SWAP1 SLOAD SWAP1 PUSH2 0x100 EXP SWAP1 DIV PUSH20 0xFFFFFFFFFFFFFFFFFFFFFFFFFFFFFFFFFFFFFFFF AND PUSH20 0xFFFFFFFFFFFFFFFFFFFFFFFFFFFFFFFFFFFFFFFF AND PUSH1 0x2 SLOAD PUSH1 0x40 MLOAD PUSH2 0x60D SWAP1 PUSH2 0xA08 JUMP JUMPDEST PUSH0 PUSH1 0x40 MLOAD DUP1 DUP4 SUB DUP2 DUP6 DUP8 GAS CALL SWAP3 POP POP POP RETURNDATASIZE DUP1 PUSH0 DUP2 EQ PUSH2 0x647 JUMPI PUSH1 0x40 MLOAD SWAP2 POP PUSH1 0x1F NOT PUSH1 0x3F RETURNDATASIZE ADD AND DUP3 ADD PUSH1 0x40 MSTORE RETURNDATASIZE DUP3 MSTORE RETURNDATASIZE PUSH0 PUSH1 0x20 DUP5 ADD RETURNDATACOPY PUSH2 0x64C JUMP JUMPDEST PUSH1 0x60 SWAP2 POP JUMPDEST POP POP SWAP1 POP DUP1 PUSH2 0x690 JUMPI PUSH1 0x40 MLOAD PUSH32 0x8C379A000000000000000000000000000000000000000000000000000000000 DUP2 MSTORE PUSH1 0x4 ADD PUSH2 0x687 SWAP1 PUSH2 0xA66 JUMP JUMPDEST PUSH1 0x40 MLOAD DUP1 SWAP2 SUB SWAP1 REVERT JUMPDEST PUSH1 0x1 PUSH1 0x3 PUSH0 PUSH2 0x100 EXP DUP2 SLOAD DUP2 PUSH1 0xFF MUL NOT AND SWAP1 DUP4 ISZERO ISZERO MUL OR SWAP1 SSTORE POP POP JUMP JUMPDEST PUSH0 PUSH1 0x4 PUSH0 CALLER PUSH20 0xFFFFFFFFFFFFFFFFFFFFFFFFFFFFFFFFFFFFFFFF AND PUSH20 0xFFFFFFFFFFFFFFFFFFFFFFFFFFFFFFFFFFFFFFFF AND DUP2 MSTORE PUSH1 0x20 ADD SWAP1 DUP2 MSTORE PUSH1 0x20 ADD PUSH0 KECCAK256 PUSH0 SWAP1 SLOAD SWAP1 PUSH2 0x100 EXP SWAP1 DIV PUSH1 0xFF AND ISZERO PUSH2 0x705 JUMPI PUSH0 SWAP1 POP PUSH2 0x70A JUMP JUMPDEST PUSH1 0x1 SWAP1 POP JUMPDEST SWAP1 JUMP JUMPDEST PUSH0 DUP1 PUSH0 SWAP1 POP TIMESTAMP CALLER DUP3 PUSH1 0x40 MLOAD PUSH1 0x20 ADD PUSH2 0x727 SWAP4 SWAP3 SWAP2 SWAP1 PUSH2 0xCA3 JUMP JUMPDEST PUSH1 0x40 MLOAD PUSH1 0x20 DUP2 DUP4 SUB SUB DUP2 MSTORE SWAP1 PUSH1 0x40 MSTORE DUP1 MLOAD SWAP1 PUSH1 0x20 ADD KECCAK256 PUSH0 SHR SWAP2 POP POP SWAP1 JUMP JUMPDEST PUSH0 PUSH20 0xFFFFFFFFFFFFFFFFFFFFFFFFFFFFFFFFFFFFFFFF DUP3 AND SWAP1 POP SWAP2 SWAP1 POP JUMP JUMPDEST PUSH0 PUSH2 0x76E DUP3 PUSH2 0x745 JUMP JUMPDEST SWAP1 POP SWAP2 SWAP1 POP JUMP JUMPDEST PUSH2 0x77E DUP2 PUSH2 0x764 JUMP JUMPDEST DUP3 MSTORE POP POP JUMP JUMPDEST PUSH0 PUSH1 0x20 DUP3 ADD SWAP1 POP PUSH2 0x797 PUSH0 DUP4 ADD DUP5 PUSH2 0x775 JUMP JUMPDEST SWAP3 SWAP2 POP POP JUMP JUMPDEST PUSH0 DUP2 ISZERO ISZERO SWAP1 POP SWAP2 SWAP1 POP JUMP JUMPDEST PUSH2 0x7B1 DUP2 PUSH2 0x79D JUMP JUMPDEST DUP3 MSTORE POP POP JUMP JUMPDEST PUSH0 PUSH1 0x20 DUP3 ADD SWAP1 POP PUSH2 0x7CA PUSH0 DUP4 ADD DUP5 PUSH2 0x7A8 JUMP JUMPDEST SWAP3 SWAP2 POP POP JUMP JUMPDEST PUSH0 DUP1 REVERT JUMPDEST PUSH0 DUP2 SWAP1 POP SWAP2 SWAP1 POP JUMP JUMPDEST PUSH2 0x7E6 DUP2 PUSH2 0x7D4 JUMP JUMPDEST DUP2 EQ PUSH2 0x7F0 JUMPI PUSH0 DUP1 REVERT JUMPDEST POP JUMP JUMPDEST PUSH0 DUP2 CALLDATALOAD SWAP1 POP PUSH2 0x801 DUP2 PUSH2 0x7DD JUMP JUMPDEST SWAP3 SWAP2 POP POP JUMP JUMPDEST PUSH0 PUSH1 0x20 DUP3 DUP5 SUB SLT ISZERO PUSH2 0x81C JUMPI PUSH2 0x81B PUSH2 0x7D0 JUMP JUMPDEST JUMPDEST PUSH0 PUSH2 0x829 DUP5 DUP3 DUP6 ADD PUSH2 0x7F3 JUMP JUMPDEST SWAP2 POP POP SWAP3 SWAP2 POP POP JUMP JUMPDEST PUSH2 0x83B DUP2 PUSH2 0x7D4 JUMP JUMPDEST DUP3 MSTORE POP POP JUMP JUMPDEST PUSH0 PUSH1 0x20 DUP3 ADD SWAP1 POP PUSH2 0x854 PUSH0 DUP4 ADD DUP5 PUSH2 0x832 JUMP JUMPDEST SWAP3 SWAP2 POP POP JUMP JUMPDEST PUSH0 PUSH2 0x864 DUP3 PUSH2 0x745 JUMP JUMPDEST SWAP1 POP SWAP2 SWAP1 POP JUMP JUMPDEST PUSH2 0x874 DUP2 PUSH2 0x85A JUMP JUMPDEST DUP3 MSTORE POP POP JUMP JUMPDEST PUSH0 PUSH1 0x20 DUP3 ADD SWAP1 POP PUSH2 0x88D PUSH0 DUP4 ADD DUP5 PUSH2 0x86B JUMP JUMPDEST SWAP3 SWAP2 POP POP JUMP JUMPDEST PUSH0 DUP3 DUP3 MSTORE PUSH1 0x20 DUP3 ADD SWAP1 POP SWAP3 SWAP2 POP POP JUMP JUMPDEST PUSH32 0x63616E742061636365737320617320796F7520617265206D616E616765720000 PUSH0 DUP3 ADD MSTORE POP JUMP JUMPDEST PUSH0 PUSH2 0x8D7 PUSH1 0x1E DUP4 PUSH2 0x893 JUMP JUMPDEST SWAP2 POP PUSH2 0x8E2 DUP3 PUSH2 0x8A3 JUMP JUMPDEST PUSH1 0x20 DUP3 ADD SWAP1 POP SWAP2 SWAP1 POP JUMP JUMPDEST PUSH0 PUSH1 0x20 DUP3 ADD SWAP1 POP DUP2 DUP2 SUB PUSH0 DUP4 ADD MSTORE PUSH2 0x904 DUP2 PUSH2 0x8CB JUMP JUMPDEST SWAP1 POP SWAP2 SWAP1 POP JUMP JUMPDEST PUSH32 0x6C6F747465727920686173206265656E20636F6D706C65746564000000000000 PUSH0 DUP3 ADD MSTORE POP JUMP JUMPDEST PUSH0 PUSH2 0x93F PUSH1 0x1A DUP4 PUSH2 0x893 JUMP JUMPDEST SWAP2 POP PUSH2 0x94A DUP3 PUSH2 0x90B JUMP JUMPDEST PUSH1 0x20 DUP3 ADD SWAP1 POP SWAP2 SWAP1 POP JUMP JUMPDEST PUSH0 PUSH1 0x20 DUP3 ADD SWAP1 POP DUP2 DUP2 SUB PUSH0 DUP4 ADD MSTORE PUSH2 0x96C DUP2 PUSH2 0x933 JUMP JUMPDEST SWAP1 POP SWAP2 SWAP1 POP JUMP JUMPDEST PUSH32 0x616C726561647920627579206C6F7474657279207469636B6574000000000000 PUSH0 DUP3 ADD MSTORE POP JUMP JUMPDEST PUSH0 PUSH2 0x9A7 PUSH1 0x1A DUP4 PUSH2 0x893 JUMP JUMPDEST SWAP2 POP PUSH2 0x9B2 DUP3 PUSH2 0x973 JUMP JUMPDEST PUSH1 0x20 DUP3 ADD SWAP1 POP SWAP2 SWAP1 POP JUMP JUMPDEST PUSH0 PUSH1 0x20 DUP3 ADD SWAP1 POP DUP2 DUP2 SUB PUSH0 DUP4 ADD MSTORE PUSH2 0x9D4 DUP2 PUSH2 0x99B JUMP JUMPDEST SWAP1 POP SWAP2 SWAP1 POP JUMP JUMPDEST PUSH0 DUP2 SWAP1 POP SWAP3 SWAP2 POP POP JUMP JUMPDEST POP JUMP JUMPDEST PUSH0 PUSH2 0x9F3 PUSH0 DUP4 PUSH2 0x9DB JUMP JUMPDEST SWAP2 POP PUSH2 0x9FE DUP3 PUSH2 0x9E5 JUMP JUMPDEST PUSH0 DUP3 ADD SWAP1 POP SWAP2 SWAP1 POP JUMP JUMPDEST PUSH0 PUSH2 0xA12 DUP3 PUSH2 0x9E8 JUMP JUMPDEST SWAP2 POP DUP2 SWAP1 POP SWAP2 SWAP1 POP JUMP JUMPDEST PUSH32 0x7472616E206973206661696C6564000000000000000000000000000000000000 PUSH0 DUP3 ADD MSTORE POP JUMP JUMPDEST PUSH0 PUSH2 0xA50 PUSH1 0xE DUP4 PUSH2 0x893 JUMP JUMPDEST SWAP2 POP PUSH2 0xA5B DUP3 PUSH2 0xA1C JUMP JUMPDEST PUSH1 0x20 DUP3 ADD SWAP1 POP SWAP2 SWAP1 POP JUMP JUMPDEST PUSH0 PUSH1 0x20 DUP3 ADD SWAP1 POP DUP2 DUP2 SUB PUSH0 DUP4 ADD MSTORE PUSH2 0xA7D DUP2 PUSH2 0xA44 JUMP JUMPDEST SWAP1 POP SWAP2 SWAP1 POP JUMP JUMPDEST PUSH32 0x4E487B7100000000000000000000000000000000000000000000000000000000 PUSH0 MSTORE PUSH1 0x11 PUSH1 0x4 MSTORE PUSH1 0x24 PUSH0 REVERT JUMPDEST PUSH0 PUSH2 0xABB DUP3 PUSH2 0x7D4 JUMP JUMPDEST SWAP2 POP PUSH2 0xAC6 DUP4 PUSH2 0x7D4 JUMP JUMPDEST SWAP3 POP DUP3 DUP3 ADD SWAP1 POP DUP1 DUP3 GT ISZERO PUSH2 0xADE JUMPI PUSH2 0xADD PUSH2 0xA84 JUMP JUMPDEST JUMPDEST SWAP3 SWAP2 POP POP JUMP JUMPDEST PUSH32 0x6C6F747465727920686173206E6F7420636F6D706C6574656400000000000000 PUSH0 DUP3 ADD MSTORE POP JUMP JUMPDEST PUSH0 PUSH2 0xB18 PUSH1 0x19 DUP4 PUSH2 0x893 JUMP JUMPDEST SWAP2 POP PUSH2 0xB23 DUP3 PUSH2 0xAE4 JUMP JUMPDEST PUSH1 0x20 DUP3 ADD SWAP1 POP SWAP2 SWAP1 POP JUMP JUMPDEST PUSH0 PUSH1 0x20 DUP3 ADD SWAP1 POP DUP2 DUP2 SUB PUSH0 DUP4 ADD MSTORE PUSH2 0xB45 DUP2 PUSH2 0xB0C JUMP JUMPDEST SWAP1 POP SWAP2 SWAP1 POP JUMP JUMPDEST PUSH32 0x4E487B7100000000000000000000000000000000000000000000000000000000 PUSH0 MSTORE PUSH1 0x32 PUSH1 0x4 MSTORE PUSH1 0x24 PUSH0 REVERT JUMPDEST PUSH32 0x796F7520617265206E6F74206D616E6167657200000000000000000000000000 PUSH0 DUP3 ADD MSTORE POP JUMP JUMPDEST PUSH0 PUSH2 0xBAD PUSH1 0x13 DUP4 PUSH2 0x893 JUMP JUMPDEST SWAP2 POP PUSH2 0xBB8 DUP3 PUSH2 0xB79 JUMP JUMPDEST PUSH1 0x20 DUP3 ADD SWAP1 POP SWAP2 SWAP1 POP JUMP JUMPDEST PUSH0 PUSH1 0x20 DUP3 ADD SWAP1 POP DUP2 DUP2 SUB PUSH0 DUP4 ADD MSTORE PUSH2 0xBDA DUP2 PUSH2 0xBA1 JUMP JUMPDEST SWAP1 POP SWAP2 SWAP1 POP JUMP JUMPDEST PUSH32 0x4E487B7100000000000000000000000000000000000000000000000000000000 PUSH0 MSTORE PUSH1 0x12 PUSH1 0x4 MSTORE PUSH1 0x24 PUSH0 REVERT JUMPDEST PUSH0 PUSH2 0xC18 DUP3 PUSH2 0x7D4 JUMP JUMPDEST SWAP2 POP PUSH2 0xC23 DUP4 PUSH2 0x7D4 JUMP JUMPDEST SWAP3 POP DUP3 PUSH2 0xC33 JUMPI PUSH2 0xC32 PUSH2 0xBE1 JUMP JUMPDEST JUMPDEST DUP3 DUP3 MOD SWAP1 POP SWAP3 SWAP2 POP POP JUMP JUMPDEST PUSH0 DUP2 SWAP1 POP SWAP2 SWAP1 POP JUMP JUMPDEST PUSH2 0xC58 PUSH2 0xC53 DUP3 PUSH2 0x7D4 JUMP JUMPDEST PUSH2 0xC3E JUMP JUMPDEST DUP3 MSTORE POP POP JUMP JUMPDEST PUSH0 DUP2 PUSH1 0x60 SHL SWAP1 POP SWAP2 SWAP1 POP JUMP JUMPDEST PUSH0 PUSH2 0xC74 DUP3 PUSH2 0xC5E JUMP JUMPDEST SWAP1 POP SWAP2 SWAP1 POP JUMP JUMPDEST PUSH0 PUSH2 0xC85 DUP3 PUSH2 0xC6A JUMP JUMPDEST SWAP1 POP SWAP2 SWAP1 POP JUMP JUMPDEST PUSH2 0xC9D PUSH2 0xC98 DUP3 PUSH2 0x85A JUMP JUMPDEST PUSH2 0xC7B JUMP JUMPDEST DUP3 MSTORE POP POP JUMP JUMPDEST PUSH0 PUSH2 0xCAE DUP3 DUP7 PUSH2 0xC47 JUMP JUMPDEST PUSH1 0x20 DUP3 ADD SWAP2 POP PUSH2 0xCBE DUP3 DUP6 PUSH2 0xC8C JUMP JUMPDEST PUSH1 0x14 DUP3 ADD SWAP2 POP PUSH2 0xCCE DUP3 DUP5 PUSH2 0xC47 JUMP JUMPDEST PUSH1 0x20 DUP3 ADD SWAP2 POP DUP2 SWAP1 POP SWAP5 SWAP4 POP POP POP POP JUMP INVALID LOG2 PUSH5 0x6970667358 0x22 SLT KECCAK256 DUP7 KECCAK256 DUP4 0xCD 0xAA PUSH24 0x693869839BCCF6880AFB1296A799C961DBB7269AFFEE7600 SWAP16 SLOAD PUSH5 0x736F6C6343 STOP ADDMOD AND STOP CALLER "
				},
				"gasEstimates": {
					"creation": {
						"codeDepositCost": "669800",
						"executionCost": "49230",
						"totalCost": "719030"
					},
					"external": {
						"amount()": "2469",
						"chooseWinner()": "infinite",
						"completed()": "2466",
						"enter(uint256)": "7305",
						"manager()": "2483",
						"showWinner()": "9011"
					},
					"internal": {
						"checkAccessibility()": "2280",
						"randMod()": "infinite"
					}
				},
				"methodIdentifiers": {
					"amount()": "aa8c217c",
					"chooseWinner()": "cd38aa87",
					"completed()": "9d9a7fe9",
					"enter(uint256)": "a59f3e0c",
					"manager()": "481c6a75",
					"showWinner()": "b7e03264"
				}
			},
			"storageLayout": {
				"storage": [
					{
						"astId": 3,
						"contract": "lotterySmartContract.sol:lotterySmartContract",
						"label": "manager",
						"offset": 0,
						"slot": "0",
						"type": "t_address_payable"
					},
					{
						"astId": 6,
						"contract": "lotterySmartContract.sol:lotterySmartContract",
						"label": "players",
						"offset": 0,
						"slot": "1",
						"type": "t_array(t_address_payable)dyn_storage"
					},
					{
						"astId": 8,
						"contract": "lotterySmartContract.sol:lotterySmartContract",
						"label": "amount",
						"offset": 0,
						"slot": "2",
						"type": "t_uint256"
					},
					{
						"astId": 11,
						"contract": "lotterySmartContract.sol:lotterySmartContract",
						"label": "completed",
						"offset": 0,
						"slot": "3",
						"type": "t_bool"
					},
					{
						"astId": 51,
						"contract": "lotterySmartContract.sol:lotterySmartContract",
						"label": "map",
						"offset": 0,
						"slot": "4",
						"type": "t_mapping(t_address,t_bool)"
					},
					{
						"astId": 147,
						"contract": "lotterySmartContract.sol:lotterySmartContract",
						"label": "_index",
						"offset": 0,
						"slot": "5",
						"type": "t_uint256"
					}
				],
				"types": {
					"t_address": {
						"encoding": "inplace",
						"label": "address",
						"numberOfBytes": "20"
					},
					"t_address_payable": {
						"encoding": "inplace",
						"label": "address payable",
						"numberOfBytes": "20"
					},
					"t_array(t_address_payable)dyn_storage": {
						"base": "t_address_payable",
						"encoding": "dynamic_array",
						"label": "address payable[]",
						"numberOfBytes": "32"
					},
					"t_bool": {
						"encoding": "inplace",
						"label": "bool",
						"numberOfBytes": "1"
					},
					"t_mapping(t_address,t_bool)": {
						"encoding": "mapping",
						"key": "t_address",
						"label": "mapping(address => bool)",
						"numberOfBytes": "32",
						"value": "t_bool"
					},
					"t_uint256": {
						"encoding": "inplace",
						"label": "uint256",
						"numberOfBytes": "32"
					}
				}
			},
			"userdoc": {
				"kind": "user",
				"methods": {},
				"version": 1
			}
		}
	}
}